:020000040800F2
:1020000000000120257C0108DB7B0108DD7B010845
:10201000DF7B0108E17B0108E37B01080000000091
:10202000000000000000000000000000E57B010847
:10203000E57B010800000000E57B0108FD7C01084C
:10204000E57B0108E57B0108E57B0108E57B0108EC
:10205000E57B0108E57B0108E57B0108E57B0108DC
:10206000E57B0108E57B0108E57B0108E57B0108CC
:10207000E57B0108E57B01083DDC0108E57B010803
:10208000E57B0108E57B0108918A0108E57B0108F1
:10209000E57B0108E57B0108E57B0108E57B01089C
:1020A000E57B0108E57B0108E57B0108E57B01088C
:1020B000E57B0108E57B0108E57B0108E57B01087C
:1020C000E57B0108D1820108C9850108E57B01088B
:1020D000E57B0108E1C70108797F01082580010837
:1020E000E57B0108E57B0108E57B0108E57B01084C
:1020F000E57B0108E57B0108E57B0108E57B01083C
:10210000E57B0108E57B0108E57B0108E57B01082B
:10211000E57B0108FDC8010885C60108E57B0108CB
:10212000E57B0108E57B0108E57B0108E57B01080B
:10216000F8B50D46044608461146174603F020FE12
:1021700039460646284603F07DFE002D04DB002983
:1021800006DA0136C91B03E0002901DD013EC91949
:10219000266020466160F8BD10B5002302E0CC5CEB
:1021A000C45401339342FAD110BD002301E0C1545D
:1021B00001339342FBD170474D4B2DE9F34721F09A
:1021C00000469E4204460D468A4613DD494A964221
:1021D00001DC07D130B12046294622462B4603F0C8
:1021E0005FFE30E1444B454D454CBAF1000FC8BF8E
:1021F0001D464DE1434B9E4211DCA3F1DE739E422E
:1022000000F38C8038A3D3E9002303F049FE0022B9
:102210003D4B04F087FA002800F0808038E100F0A0
:10222000A3F93A4B9E4204460D4634DCA3F55023F5
:102230009E421ADC02460B4603F032FE0022324B6D
:1022400003F02CFE00224FF0804306460F46204646
:10225000294603F025FE02460B463046394604F077
:10226000FBF8002604460D465AE00022264B03F0F8
:1022700015FE0022244B06460F462046294603F051
:102280000FFE02460B463046394604F0E5F80126BB
:1022900004460D4644E01E4B9E4219DC00221D4BB5
:1022A00003F0FCFD00221B4B06460F462046294644
:1022B00003F0A8FF0022144B03F0F2FD02460B4688
:1022C0003046394604F0C8F8022604460D4627E099
:1022D00022462B460020104904F0BEF8032604468F
:1022E0000D461DE0AFF300809C7500883CE4377E0E
:1022F000FFFF0F440000F07FFB21F93FFB21F9BFF6
:10230000182D4454FFFFDB3F0000F03FFFFFF23F7A
:10231000FF7F03400000F83F0000F0BF4FF0FF36A2
:1023200022462B462046294603F06CFF02460B4608
:10233000CDE9000103F066FF57A3D3E900238046EF
:10234000894603F05FFF56A3D3E9002303F0A8FDFD
:1023500002460B464046494603F054FF52A3D3E9D8
:10236000002303F09DFD02460B464046494603F01C
:1023700049FF4FA3D3E9002303F092FD02460B4629
:102380004046494603F03EFF4BA3D3E9002303F048
:1023900087FD02460B464046494603F033FF48A3FB
:1023A000D3E9002303F07CFD02460B46DDE9000182
:1023B00003F028FF44A3D3E90023CDE90001404600
:1023C000494603F01FFF42A3D3E9002303F066FD53
:1023D00002460B464046494603F014FF3EA3D3E9AC
:1023E000002303F05BFD02460B464046494603F0DE
:1023F00009FF3BA3D3E9002303F050FD02460B463F
:102400004046494603F0FEFE37A3D3E9002303F01C
:1024100045FD02460B464046494603F0F3FE0B4697
:10242000711C024612D1DDE9000103F039FD0246BC
:102430000B462046294603F0E5FE02460B462046A1
:10244000294603F02BFD04460D4621E0284901EB07
:10245000C606DDE9000103F023FD02460B462046D7
:10246000294603F0CFFED6E9082303F017FD2246E4
:102470002B4603F013FD02460B46D6E9000103F09C
:102480000DFDBAF1000F0D460446B8BF01F100453D
:1024900020462946BDE8FC8711DA22E33AAD903F99
:1024A000EB0D76244B7BA93F513DD0A0660DB13F8B
:1024B0006E204CC5CD45B73FFF8300922449C23FF3
:1024C0000D5555555555D53F2F6C6A2C44B4A2BFB8
:1024D0009AFDDE522DDEAD3F6D9A74AFF2B0B33F80
:1024E000711623FEC671BC3FC4EB98999999C93FF8
:1024F00040140208AFF30080194A21F0004330B5C0
:10250000934287B004460D4602DC0022002315E00A
:10251000144A934204DD02460B4603F0BFFC1DE063
:1025200002AA01F0F1FADDE9042300F00304DDE979
:102530000201012C05D0022C07D05CB902F000F991
:102540000CE0009402F054FD01E002F0F9F801F112
:10255000004103E00124009402F04AFD07B030BDC1
:10256000FB21E93FFFFFEF7F21F0004170470000B2
:102570002DE9F347C1F30A56A6F2FF358046132D25
:1025800089460F460C4603464FEAD17A45DC002DBA
:102590002BDA21F00041014371D029F07F417A0C00
:1025A00021F4700141EA0003520459420B431B0B12
:1025B00003F4002343EA0209334B424603EBCA0308
:1025C000D3E900454B462046294603F069FC2B46DB
:1025D0002246CDE90001DDE9000103F05FFC21F0B6
:1025E0000043804643EACA7949E0284A2A4111401B
:1025F000014344D0520802EA090151EA000327D0FE
:1026000029EA02044FF48022132D0CBF4FF000433F
:10261000002352FA05F52C431AE0332D07DDB5F5FA
:10262000806F2CD102460B4603F03AFC25E04FF0B8
:10263000FF32A6F21346F240024220D05208024274
:1026400006D020EA02034FF0804252FA06F63343E6
:102650001E460D4B2746324603EBCA03D3E900451D
:102660003B462046294603F01BFC22462B46CDE97B
:102670000001DDE9000103F011FC80468946404677
:102680004946BDE8FC8700BF80140208FFFF0F0029
:102690001B4A21F0004330B5934287B004460D46F3
:1026A00004DC002300220093002317E0154A934224
:1026B00004DD02460B4603F0F1FB1EE002AA01F026
:1026C00023FADDE9042300F00304DDE90201012C13
:1026D00007D0022C08D064B90124009402F088FCD1
:1026E0000BE002F02DF808E00124009402F080FCD9
:1026F00001E002F025F801F1004107B030BD00BF54
:10270000FB21E93FFFFFEF7F2DE9F04120F000457D
:10271000B5F1A14F044607460BDBB5F1FF4F03DDD2
:10272000014604F0A7F8DFE0002840F3DB80704C9E
:10273000DBE0704B9D420CDCB5F1445F57DA6E492B
:1027400004F098F84FF07E5104F058FB00284ED06A
:10275000CBE000F01FF9694B9D42044628DCA3F54D
:10276000D0039D4213DC0146002604F083F84FF0AD
:102770007E5104F07DF84FF080410546204604F07C
:1027800079F80146284604F031FA044631E04FF06A
:102790007E51012604F06CF84FF07E51054620462C
:1027A00004F068F80146284604F020FA044620E0C8
:1027B000534B9D4214DC4FF07F51022604F058F831
:1027C0004FF07F510546204604F05CF94FF07E51F2
:1027D00004F050F80146284604F008FA044608E0E0
:1027E0002146484804F002FA0326044601E04FF06F
:1027F000FF362146204604F045F90146804604F0A4
:1028000041F94149054604F03DF9404904F032F8E8
:102810000146284604F036F93D4904F02BF80146FC
:10282000284604F02FF93B4904F024F801462846D5
:1028300004F028F9384904F01DF80146284604F050
:1028400021F9364904F016F80146404604F01AF919
:1028500033498046284604F015F9324904F008F857
:102860000146284604F00EF92F4904F001F801460C
:10287000284604F007F92D4903F0FAFF01462846DF
:1028800004F000F92A4903F0F3FF0146284604F05A
:10289000F9F8731C01460BD1404603F0EBFF0146EB
:1028A000204604F0EFF80146204603F0E1FF1BE06C
:1028B0004046204D03F0DEFF0146204604F0E2F8DA
:1028C00005EB8603196903F0D3FF214603F0D0FF1F
:1028D000014655F8260003F0CBFF002F04DA00F183
:1028E000004402E0144C00E004462046BDE8F081BC
:1028F000DB0FC93FFFFFDF3ECAF24971FFFF973F81
:10290000FFFF1B40000080BFD769853C59DA4B3D73
:10291000356B883D6E2EBA3D2549123EABAAAA3EC4
:1029200021A215BD6BF16E3D95879D3D388EE33D2F
:10293000CDCC4C3E90140208DB0FC9BF07B520F088
:102940000043134A0146934201DC002111E0B3F138
:10295000FF4F02DB03F08CFF19E0694601F04CFDEC
:10296000019900F003020098012A05D0022A06D03E
:1029700052B902F0FDFB0AE002F098FF01E002F01C
:10298000F7FB00F1004002E0012202F08FFF0EBDD4
:10299000D80F493F20F000407047000007B520F0F5
:1029A0000043174A0146934202DC0021002212E054
:1029B000B3F1FF4F02DB03F05BFF20E0694601F05B
:1029C0001BFD00F00300012808D002280BD080B9BD
:1029D00000980122019902F069FF10E00098019926
:1029E00002F0C6FB0BE000980122019902F05EFFA5
:1029F00003E00098019902F0BBFB00F100400EBD1E
:102A0000D80F493F00F04CBA2DE9F04F8BB01F466C
:102A100082468B46164600F033FB844C94F9003016
:102A200001338046894600F046813046394603F03E
:102A300047F8002800F03F815046594603F040F81F
:102A40000546E8B9304639460022002303F042FE2D
:102A5000002800F0308101230093754B0022089577
:102A6000CDE902AB0193734BCDE90467CDE90623B1
:102A700094F900305A1C00F01681022B7ED112E12D
:102A8000504659460022002303F024FE002840D07F
:102A9000304639460022002303F01CFEB0B101236A
:102AA0000093634B0022CDE902ABCDE904670193AB
:102AB000002308930023CDE9062394F90030002B6E
:102AC0005CD05C4B0022CDE90623ECE03046394671
:102AD00002F066FF002800F0EE8030463946002202
:102AE000002303F001FE002800F0E580012300939D
:102AF0004F4B00222178CDE902AB01930023CDE9B1
:102B00000467089300292BD04B4B0229CDE90623FB
:102B100033E04046494602F043FF0546002840F0B6
:102B200095805046594602F03BFF002800F08E8009
:102B30003046394602F034FF002800F087804046D6
:102B4000494602F0BDFF3A4B10BB247801220890A1
:102B50008DE80C00CDE902ABCDE9046724B9002271
:102B60000023CDE9062309E00020002102460B46A0
:102B700003F072FC022CCDE9060105D0684602F094
:102B8000D1FF002840F08F8005F0D6FB212389E09B
:102B900003228DE80C0094F900300895CDE902ABD2
:102BA000CDE9046703BB254B4FF0604250465946C0
:102BB000CDE906230022002303F096FD002865D00E
:102BC00000221F4B3046394603F01CFB04460D46DD
:102BD000FFF7CEFC22462B4603F07CFD002855D1A2
:102BE0004FF06042174B1DE0174B002250465946EC
:102BF000CDE906230022002303F076FD002845D00E
:102C000000220F4B3046394603F0FCFA04460D46CD
:102C1000FFF7AEFC22462B4603F05CFD002835D1C1
:102C2000054B0022CDE9062330E000BF0000002064
:102C3000F01A02080000F03F0000F0FFFFFFEF472E
:102C40000000E03FFFFFEFC70000F07F00240025F9
:102C50004046494622462B4603F03CFD00282AD038
:102C60005046594602F09CFE28B33046394602F0E1
:102C700097FE00B304230093114BCDE902ABCDE9DD
:102C8000046701930023CDE9064508930D4B93F9A2
:102C90000030022B03D0684602F044FF18B905F05B
:102CA0004BFB22230360089B1BB105F045FB089BEF
:102CB0000360DDE90689404649460BB0BDE8F08F68
:102CC000F01A0208000000202DE9D04F8AB0064615
:102CD0000F4601F0FDF8234C94F900300133824691
:102CE0008B463AD03046394602F0EAFE002834D00E
:102CF0004FF000084FF000093046394642464B4637
:102D000003F0F2FC002828D001230093164B24780E
:102D1000CDE9046701930023CDE90267089314B954
:102D2000CDE9068909E04046494642464B4603F054
:102D300093FB022CCDE9060103D0684602F0F2FEB7
:102D400018B905F0F9FA21230360089B1BB105F0BF
:102D5000F3FA089B0360DDE906AB504659460AB01A
:102D6000BDE8D08F00000020F41A020870B58AB0C8
:102D7000044601F05BF91F4E96F900300133054619
:102D800035D0204602F08CFF002830D02046FFF7D7
:102D900001FE4FF07E5104F031F840B3012300935F
:102DA000154B204601930023089303F0D7F9CDE992
:102DB0000401CDE90201114802F0B6FE96F9003097
:102DC000022BCDE9060103D0684602F0ABFE18B92C
:102DD00005F0B2FA21230360089B1BB105F0ACFAA1
:102DE000089B0360DDE9060103F0EEFC054628467A
:102DF0000AB070BD00000020F91A0208061B020884
:102E000001F06ABA70B58AB0044601F049FC224E5E
:102E100096F90030013305463BD0204602F040FFD2
:102E2000002836D02046002103F0CAFF002830D009
:102E300001230093194B204601930023089303F0CC
:102E40008DF93478CDE90401CDE9020124B90022DD
:102E50000023CDE9062309E00020002102460B46AD
:102E600003F0FAFA022CCDE9060103D0684602F01D
:102E700059FE18B905F060FA21230360089B1BB1C5
:102E800005F05AFA089B0360DDE9060103F09CFC9B
:102E9000054628460AB070BD00000020FF1A02084F
:102EA0002DE9FF479046CDE9022323F00047024673
:102EB00099460B46CDE90023C8F100036E4E43EA64
:102EC000080304460D46019A47EAD373DDF800A0D3
:102ED000B3420AD822F000439446CAF1000242EA03
:102EE0000A0243EAD272B24206D920462946DDE9F7
:102EF000022302F0D5FF94E009F1404202F580126E
:102F000052EA080204D104B0BDE8F047FFF754B913
:102F10004FEAA97653EA0A0A06F0020646EADC7688
:102F200005D1032E03D8DFE806F07E7E252957EA77
:102F3000080829D0504A974224D1BB4211D1032E10
:102F400022D8DFE806F00262060A39A5D5E9004575
:102F500069E039A5D5E9004565E039A5D5E9004521
:102F600061E0032E0ED8DFE806F0025405090024C4
:102F7000002558E034A5D5E9004554E034A5D5E94D
:102F8000004550E0934206D1BCF1000F45DA32A56E
:102F9000D5E9004547E0DB1B1B153C2B0FDCB9F1E5
:102FA000000F01DA3C330EDBDDE90223204629461F
:102FB00003F052FAFFF7D8FAFFF7FEF805E028A170
:102FC000D1E9000101E000200021012E03D0022EF2
:102FD00005D036B30EE0044601F1004523E022A3FC
:102FE000D3E9002302F05AFF02460B4616A1D1E9AD
:102FF000000107E01CA3D3E9002302F04FFF12A356
:10300000D3E9002302F04AFF0BE019A5D5E90045FA
:1030100009E000244FF0004505E011A5D5E9004581
:1030200001E004460D462046294604B0BDE8F0877D
:10303000182D4454FB21E93FD221337F7CD9024033
:10304000D221337F7CD902C0182D4454FB21094082
:10305000182D4454FB2109C0182D4454FB21F9BFFD
:10306000182D4454FB21F93F075C143326A6A13CDC
:10307000182D4454FB21E9BF0000F07FAFF300801E
:103080009C462DE9F04F93462CF0004691B056EA4D
:103090000B0382468946069180465A46654600F0F3
:1030A000F6847F4B21F0004402919C4205DC00D164
:1030B00018B99E4201DC0ED16AB104F1404404F516
:1030C000801B5BEA080B00F0E584764811B0BDE890
:1030D000F04F02F029BD029900292DDA724B9E4271
:1030E00028DCA3F154739E4226DD331540F21341D0
:1030F0008B420DDDC3F58663033332FA03F111FA17
:1031000003F393421BD101F00101C1F1020117E069
:10311000002A50D1C3F58263033356FA03F111FA42
:1031200003F3B34240F0C98401F00101C1F102018F
:10313000049122E0022103E00023049301E0002136
:103140000491002A39D1564B9E4216D104F14043D6
:1031500003F5801353EA080300F09B84534B9C4211
:1031600004DD002D80F2A48400F097BC002D80F2D5
:1031700094840CF1004C00F09BBC4D4B9E4207D157
:10318000002D80F28C840020494952464B465DE078
:10319000B5F1804F02D15046494677E0454B9D42FC
:1031A0000BD1029A002A08DB5046494611B0BDE80F
:1031B000F04F00F08DBE0023049350464946CDF8F1
:1031C00004C0FFF7D1F9DDF804C002460F46B8F19C
:1031D000000F2CD1324B9C4204D01CB103F1404370
:1031E0009C4224D1002D08DA3B460020304990460D
:1031F00003F032F9B94602460F460299002980F2DF
:10320000518404F14044049B04F58014234305D108
:103210001046394614463D463B4613E00499934612
:10322000012940F0408407F1004C00F041BC0699B0
:10323000CB0F0499013B0D9319430BD150464946DE
:1032400052464B4602F02AFE02460B4603F004F9B2
:1032500000F01ABC184B9E4240F3928003F10473B5
:103260009E4203DD114B9C420ADC02E0134B9C4260
:1032700003DC002D80F2198405E00D4B9C421FDD1C
:10328000002D40F3128404A1D1E9000102460B464F
:10329000F8E300BFAFF300809C7500883CE4377E04
:1032A0000000F07F061B0208FFFF3F43FFFFEF3FD8
:1032B0000000F03F0000E03F0000E041FEFFEF3F74
:1032C0001046394600224C4BCDF804C002F0E6FD12
:1032D00041A3D3E9002304460D4602F093FF40A327
:1032E000D3E9002306460F462046294602F08AFF0E
:1032F00022462B46CDE902012046294602F082FFF4
:1033000000223E4B804689462046294602F07AFF3D
:1033100002460B4634A1D1E9000102F0BFFD02468E
:103320000B462046294602F06DFF02460B46002060
:10333000334902F0B3FD02460B464046494602F0CF
:1033400061FF2BA3D3E9002302F05CFF02460B468A
:10335000DDE9020102F0A2FD04460D4622462B469D
:103360003046394602F09CFD002032463B46CDE90E
:10337000020102F093FD02460B4620462946DAE19F
:10338000B4F5801F0EDA10461E4B00223946CDF8E8
:1033900004C002F037FF6FF03403DDF804C00246CA
:1033A0000C4600E00023211524F07F44A1F2FF31F8
:1033B00024F470045918144B44F07F550C919C422E
:1033C00045F4401506DD114B9C4221DDA5F5801525
:1033D00001310C9100241CE0000000604715F73F0C
:1033E00044DF5DF80BAE543E555555555555D53F08
:1033F000FE822B654715F73F0000F03F0000D03FED
:103400000000E03F000040438E98030079B60B00B7
:103410000124A34B90461046294603EBC40ACDF87D
:1034200004C0A946DAE9006732463B4602F036FDA1
:1034300032463B46CDE90A014046294602F030FDBE
:1034400002460B460020974903F006F8CDE90E012D
:10345000DDE90E23DDE90A0102F0D4FE02460B4647
:10346000CDE9062300230693DDE90623CDE9080113
:103470000020CDE902236B1043F0005303F5002335
:1034800003EB844104460D4622462B46DDE902014A
:1034900002F0B8FE02460B46DDE90A0102F0FEFC2E
:1034A00032463B46CDE90A012046294602F0F6FCA9
:1034B00002460B464046494602F0F0FC02460B46E7
:1034C000DDE9020102F09EFE02460B46DDE90A013B
:1034D00002F0E4FC02460B46DDE90E0102F092FE2A
:1034E00080468946DDE9080102460B4602F08AFE65
:1034F00002460B4604460D4602F084FE58A3D3E96B
:10350000002306460F462046294602F07BFE56A3BE
:10351000D3E9002302F0C4FC02460B4620462946AC
:1035200002F070FE52A3D3E9002302F0B9FC024678
:103530000B462046294602F065FE4FA3D3E900233F
:1035400002F0AEFC02460B462046294602F05AFE27
:103550004BA3D3E9002302F0A3FC02460B4620460E
:10356000294602F04FFE48A3D3E9002302F098FC5D
:1035700002460B463046394602F044FEDDE9082398
:1035800004460D46DDE9020102F08AFC02460B46C4
:103590004046494602F036FE02460B462046294682
:1035A00002F07EFC06460F46DDE9020102460B46AC
:1035B00002F028FE00223C4BCDE90A0102F070FC2B
:1035C00032463B4602F06CFC069B1C461A460D46F2
:1035D000DDE902012B4602F015FE22462B46CDE91D
:1035E00002014046494602F00DFE00222E4B804665
:1035F00089462046294602F051FCDDE90A2302F003
:103600004DFC02460B463046394602F047FCDDE9E8
:10361000082302F0F7FD02460B464046494602F0F9
:103620003FFC06460F4632463B46DDE9020102F00A
:1036300037FC069A1446104615A3D3E900230D461D
:1036400002F0E0FD14A3D3E90023CDE908012046F0
:10365000294602F0D7FDDDE90223804626E000BFBF
:10366000EF4E454A287ECA3F65DBC9934A86CD3F67
:1036700001411DA96074D13F4D268F515555D53F4D
:10368000FFAB6FDBB66DDB3F033333333333E33FE5
:10369000000000E009C7EE3FF5015B14E02F3EBEDD
:1036A000B01402080000F03F0000084089462046A0
:1036B000294602F0F3FB02460B463046394602F03B
:1036C000EDFB7BA3D3E9002302F09CFD02460B46F1
:1036D0004046494602F0E4FBDAE9042302F0E0FB4D
:1036E00080460C98894602F027FDDAE908674246D1
:1036F0004B4604460D46DDE9080102F0D1FB324697
:103700003B4602F0CDFB22462B4602F0C9FB069B4E
:10371000224618462B46CDE9020102F0BFFB324695
:103720003B4602F0BBFBDDE9082302F0B7FB024693
:103730000B464046494602F0B1FB049A0D9BDDF86A
:1037400004C06546CDF804C00F46511E00220B434D
:103750000646614608BF5E4B584618BF5D4BCDE933
:10376000042363460022144602F098FBDDE902239D
:1037700002F048FDDDF804C032463B4680468946EB
:103780005846614602F03EFD02460B464046494619
:1037900002F086FBDDE90223CDE906012046294639
:1037A00002F030FD82468B465B46DDE9060152465B
:1037B000CDE902AB02F074FB474B99428046894643
:1037C0000C460E46054626DD01F13F4404F5E004B3
:1037D000044315D138A3D3E90023DDE9060102F043
:1037E0005FFB52465B4604460D464046494602F0A2
:1037F00055FB02460B462046294602F093FF48B38C
:103800002FA3D3E90023DDE9040102F0FBFC2CA384
:10381000D3E9002336E1314B21F000429A4219DD11
:103820002F4BCB1803430AD152465B4602F036FBBE
:1038300002460B46DDE9060102F060FF50B122A30B
:10384000D3E90023DDE9040102F0DCFC1EA3D3E987
:10385000002317E1234A26F00043934246DD1B155F
:103860004FF48012A3F2FE331F4852FA03F30024F0
:10387000F318C3F30A5223F07F47A2F2FF3127F473
:10388000700750FA01F147F48017C2F5826223EA0B
:1038900001050332504617415946002E22462B4659
:1038A000B8BF7F4202F0FAFACDE902011FE000BF83
:1038B000FD033ADC09C7EE3FFE822B654715973CB6
:1038C0009C7500883CE4377E59F3F8C21F6EA50151
:1038D0000000F0BF0000F03FFFFF8F40FFCB9040A3
:1038E00000346F3F0000E03FFFFF0F000027DDE9DD
:1038F0000223DDE9060102F0D3FA002070A3D3E928
:10390000002304460D4602F07DFCDDE902238246D9
:103910008B462046294602F0C1FA02460B46DDE9F5
:10392000060102F0BBFA68A3D3E9002302F06AFCA7
:1039300067A3D3E90023804689462046294602F042
:1039400061FC02460B464046494602F0A9FA04468D
:103950000D4622462B465046594602F0A1FA5246E1
:103960005B468046894602F099FA02460B4620469D
:10397000294602F093FA42464B46CDE90201404601
:10398000494602F03FFC54A3D3E9002304460D4608
:1039900002F038FC52A3D3E9002302F07FFA02467A
:1039A0000B462046294602F02DFC4FA3D3E9002305
:1039B00002F076FA02460B462046294602F022FC27
:1039C0004BA3D3E9002302F069FA02460B462046D6
:1039D000294602F017FC48A3D3E9002302F060FA5D
:1039E00002460B462046294602F00CFC02460B46D6
:1039F0004046494602F052FA04460D4622462B46FE
:103A00004046494602F0FEFB00224FF080438246CA
:103A10008B462046294602F041FA02460B465046A4
:103A2000594602F019FDDDE9022304460D464046E1
:103A3000494602F0E7FB02460B46DDE9020102F0CF
:103A40002FFA02460B462046294602F027FA424644
:103A50004B4602F023FA0B4602462949002002F0A9
:103A60001DFA01EB07530446B3F5801F0D4605DA36
:103A70003A4602F061F802460B4601E01D46024656
:103A8000DDE9040102F0BEFB83468C4610E09B4654
:103A900000E09346DFF868C00AE0934607E0D346AB
:103AA000CC4605E09346BC4602E04FF0000BDC46F6
:103AB0005846614611B0BDE8F08F0492FFF75DBB38
:103AC00000000000432EE63FEF39FAFE422EE63FAB
:103AD000396CA80C615C20BED0A4BE726937663E0A
:103AE000F16BD2C541BDBB3E2CDE25AF6A56113FFE
:103AF00093BDBE166CC1663F3E5555555555C53FE5
:103B00000000F03FAFF30080A94B2DE9F04F21F00A
:103B100000468FB09E42804689461546079106DCD6
:103B2000C2E9008900230022C5E9022374E1A14B08
:103B30009E426FDC079BA04C002B8FA3D3E9002390
:103B400033DD02F0ABF9A6428046894610D08CA343
:103B5000D3E9002302F0A2F902460B464046C5E92C
:103B60000023494602F09AF985A3D3E9002316E021
:103B700085A3D3E9002302F091F985A3D3E90023BB
:103B800006460F4602F08AF902460B463046C5E962
:103B90000023394602F082F97DA3D3E9002302F025
:103BA0007DF90124C5E9020186E102F079F9A64216
:103BB0008046894610D072A3D3E9002302F070F941
:103BC00002460B464046C5E90023494602F066F925
:103BD0006BA3D3E9002316E06BA3D3E9002302F023
:103BE0005FF96BA3D3E9002306460F4602F058F9AC
:103BF00002460B463046C5E90023394602F04EF92D
:103C000063A3D3E9002302F04BF94FF0FF34C5E979
:103C1000020151E1694B9E4200F3F380FEF7A4FCE0
:103C20005DA3D3E900238046894602F0EBFA002227
:103C3000634B02F035F902F07FFD044602F07CFA96
:103C40004DA3D3E90023CDE9020102F0DBFA0246DD
:103C50000B464046494602F021F949A3D3E9002327
:103C600080468946DDE9020102F0CCFA1F2C82462B
:103C70008B464046494605DC524B621E53F82230C3
:103C80009E426FD15B46524602F008F93615C1F3E9
:103C90000A53C5E90001F31A102B40F397803AA3A9
:103CA000D3E90023DDE9020102F0ACFA82468B463B
:103CB00052465B464046494602F0F0F8CDE9040121
:103CC0004046DDE90423494602F0E8F852465B46E7
:103CD00002F0E4F82EA3D3E9002380468946DDE90B
:103CE000020102F08FFA42464B4602F0D7F88246B4
:103CF0008B465B46DDE90401524602F0CFF8C1F382
:103D00000A53C5E90001F61A312E5DDD24A3D3E97B
:103D10000023DDE9020102F075FA06460F4632463D
:103D20003B46DDE9040102F0B9F880468946424687
:103D30004B46DDE9040102F0B1F832463B4602F0A1
:103D4000ADF819A3D3E9002306460F46DDE90201C9
:103D500002F058FA32463B4602F0A0F882468B4603
:103D60004046494652465B4602F098F8C5E90001D4
:103D70002CE000BFAFF3008000004054FB21F93F6E
:103D80003163621A61B4D03D0000601A61B4D03D65
:103D90007370032E8A19A33B83C8C96D305FE43F5B
:103DA0000000002E8A19A33BC14920259A837B3944
:103DB000FB21E93F7BD90240FB21F93FFB2139413F
:103DC0000000E03FE0140208DDE9048995E8C00046
:103DD0004046494632463B4602F060F852465B4652
:103DE00002F05CF80B460246C5E90223079B002B54
:103DF00062DA07F1004701F100416F60A860E960F5
:103E000059E02F4B9E4209DD02460B4602F046F870
:103E1000C5E90201C5E9000100244DE03415A4F212
:103E200016442105731A19461F4602F085FC02F05C
:103E300083F902460B4640463946CDE9082302F095
:103E40002DF800221F4B02F0DDF90F46064602F066
:103E500073FC02F071F902460B4630463946CDE953
:103E60000A2302F01BF80022164B02F0CBF90EAF2A
:103E70000326CDE90C0100E0013E77E902010022B2
:103E8000002302F027FC0028F6D1022300930E4BFA
:103E9000224608A829460193334600F03DFD079BC2
:103EA000002B044608DA6B6803F100436B60EB6893
:103EB00003F10043EB60644220460FB0BDE8F08F91
:103EC000FFFFEF7F0000704160150208AFF3008034
:103ED0002DE9F8430246544E0446534F0D460E401A
:103EE0000B46BE420AD102460B4602F08BF902464F
:103EF0000B462046294601F0D3FF0FE0002910DCD5
:103F000021F00046064300F08A8051B102460B467C
:103F100001F0C4FF02460B4602F09EFA04460D462D
:103F20007DE01E1514D102E0D30A153E5205002B88
:103F3000FAD0002101E05B000131DD02FBD5C1F1C7
:103F400001003618C1F1200032FA00F08A40034324
:103F5000A6F2FF3623F07F43F40723F4700343F403
:103F6000801303D5D10F520001EB4303D10F00247E
:103F700001EB430376105200162120464FF4001542
:103F800047199F4202DC7819DB1B6419D70F6D08B3
:103F90005200013907EB4303F2D14FF0200C884661
:103FA0004FF00045984208EB050702DB18D1974215
:103FB00015D807F0004907EB0508B9F1004F05D106
:103FC000B8F1000F02DB00F1010900E081461B1A85
:103FD000BA4238BF013BD21B4919484600E00346AC
:103FE000D70F6D085200BCF1010C07EB4303D9D188
:103FF000134307D0481C02D10134614602E001F0AE
:10400000010359186310490803F17F53E20703F5D0
:10401000001348BF41F0004103EB06550C46204613
:104020002946BDE8F88300BF0000F07F2DE9F04786
:1040300020F00045B5F17E5F044607460AD1964957
:1040400002F020FD95490546204602F01BFD014681
:10405000284669E006DD014602F00AFC014602F04E
:10406000C5FD15E1B5F17C5F61DAB5F1485F09DAAC
:104070008B4902F0FFFB4FF07E5102F0BFFE00289B
:1040800055D006E1014602F0FDFC8649054602F0E6
:10409000F9FC854902F0EEFB0146284602F0F2FCED
:1040A000824902F0E5FB0146284602F0EBFC80491C
:1040B00002F0E0FB0146284602F0E4FC7D4902F0F4
:1040C000D7FB0146284602F0DDFC7B4902F0D2FB1B
:1040D0000146284602F0D6FC78490646284602F0FA
:1040E000D1FC774902F0C4FB0146284602F0CAFC25
:1040F000744902F0BFFB0146284602F0C3FC724936
:1041000002F0B6FB0146284602F0BCFC4FF07E519F
:1041100002F0B0FB0146304602F068FD0146204641
:1041200002F0B0FC0146204602F0A4FBB0E02046BD
:10413000FEF730FC01464FF07E5002F099FB4FF045
:104140007C5102F09FFC5749044602F09BFC564903
:1041500002F090FB0146204602F094FC534902F025
:1041600087FB0146204602F08DFC514902F082FB9C
:104170000146204602F086FC4E4902F079FB0146DA
:10418000204602F07FFC4C4902F074FB01462046B9
:1041900002F078FC49498146204602F073FC484908
:1041A00002F066FB0146204602F06CFC454902F035
:1041B00061FB0146204602F065FC434902F058FBD2
:1041C0000146204602F05EFC4FF07E5102F052FBA9
:1041D0008046204600F064FA3C4B9D42064614DDC2
:1041E0004146484602F002FD0146304602F04AFCD4
:1041F0000146304602F03EFB014602F03BFB3449EB
:1042000002F038FB014624483BE0014620F47F657C
:1042100002F030FB414625F00F058246484602F089
:10422000E5FC0146504602F02DFC29468046284612
:1042300002F028FC0146204602F01AFB29460446FB
:10424000304602F017FB0146204602F0CFFC014643
:1042500002F010FB0146114802F00AFB01464046FD
:1042600002F006FB29460446284602F003FB0146FD
:10427000184802F0FDFA0146204602F0F9FA01461C
:10428000144802F0F5FA002F02DC00F1004400E0CF
:1042900004462046BDE8F087DB0FC93F2EBD3BB387
:1042A000CAF2497108EF1138047F4F3A4611243D94
:1042B000A80A4E3E90B0A63EABAA2A3E2EC69D3D11
:1042C0006133303F2D57014039D119409999793FD9
:1042D0002EBD3B33DB0F493FF8B521F00046B6F168
:1042E000FF4F03460D4605DC20F000420746B2F1C1
:1042F000FF4F03DD184602F0BDFA67E0B1F17E5FC3
:1043000003D1BDE8F840FEF7FFB98C1704F00204B2
:1043100044EAD07422B9022C1DD0032C57D11CE0E2
:1043200006B3B6F1FF4F1AD1B2F1FF4F0BD1022CF9
:1043300005D0032C05D0012C41D0264B47E0264B5D
:1043400045E0264B43E0022C05D0032C05D0012C80
:1043500037D000233BE0224B39E0224B37E0B2F16B
:10436000FF4F03D1002F2FDA1F4B30E0921BD215E5
:104370003C2A0BDC002901DA3C3209DB184602F04A
:1043800035FCFEF707FBFEF7BFF902E0174800E037
:104390000020012C03D0022C04D0BCB108E000F1B5
:1043A000004314E0124902F065FA01460C4803E0AC
:1043B0000F4902F05FFA0A4902F05AFA06E00D4B83
:1043C00005E04FF0004302E0084B00E003461846CA
:1043D000F8BD00BFDB0F493FE4CB1640E4CB16C06D
:1043E000DB0F4940DB0F49C0DB0FC9BFDB0FC93F03
:1043F0002EBDBB33DB0F49BF9C4A2DE9F04F20F0A7
:104400000047974287B00C46054603DC2060002336
:104410004B60E0E0964A974248DC0028954927F037
:104420000F07954D20DD02F023FAAF42064609D072
:10443000924902F01DFA01462060304602F018FA57
:104440008E490CE08E4902F013FA8E49054602F0BF
:104450000FFA01462060284602F00AFA894902F064
:1044600007FA01266060FDE002F004FAAF4206465A
:1044700009D0824902F0FEF901462060304602F080
:10448000F7F97E490CE07E4902F0F4F97D490546D2
:1044900002F0F0F901462060284602F0E9F9794976
:1044A00002F0E8F94FF0FF366060DBE0764A9742B1
:1044B00000F38980FEF76EFA7449804602F0E2FA52
:1044C0004FF07C5102F0D6F902F0A2FC064602F051
:1044D00085FA6849834602F0D5FA0146404602F063
:1044E000C7F966498046584602F0CCFA1F2E81462D
:1044F000404607DC664B711E27F0FF0253F821305F
:104500009A4248D14946FF1502F0B2F92060C0F343
:10451000C750381A082844DD5949584602F0B2FA03
:1045200081464046494602F0A3F98246404651463C
:1045300002F09EF9494602F09BF9524980465846DE
:1045400002F0A0FA414602F093F9814650464946EE
:1045500002F08EF92060C0F3C7503F1A192F1FDDFB
:104560004C49584602F08EFA07465046394602F04A
:104570007FF980465046414602F07AF9394602F00A
:1045800077F945490746584602F07CFA394602F069
:104590006FF981464046494602F06AF9206000E022
:1045A000D04627684046394602F062F9494602F093
:1045B0005FF9002D606055DA07F1004700F1004017
:1045C000276060604DE0B7F1FF4F06DB014602F067
:1045D0004FF960602060002644E04FEAE758A8F1F8
:1045E00086084FEAC853FF1A384602F011FC02F061
:1045F000F5F901460390384606AF02F039F94FF05D
:10460000874102F03FFA064602F002FC02F0E6F9AA
:10461000014604903046032602F02AF94FF0874104
:1046200002F030FA059000E0013E57F8040D002139
:1046300002F0BCFB0028F7D102230093174B03A81C
:10464000214642460193334600F02CFE002D0646DB
:1046500008DA236803F100432360636803F1004331
:1046600063607642304607B0BDE8F08FD80F493F0F
:10467000E3CB1640800FC93FD00FC93F43443537C5
:104680000044353708A3852E800F494384F9223F23
:104690006816020800A3852E32318D24E816020820
:1046A00020F000420346B2F1FF4F70B5044607D335
:1046B000014602F0E7F90146204602F0DBF809E086
:1046C000002A3AD0002807DA014602F0D1F8014664
:1046D00002F08CFA044630E0C415B2F5000F08D29F
:1046E000002201E05B0001321902FBD5C2F1010298
:1046F000A41823F07F437F3C23F40003E20743F434
:1047000000034FF0807148BF5B0000226410192045
:104710005B00164675189D4202DC6E185B1B521832
:104720005B0049080138F5D113B102F00103D2183A
:10473000521002F17C5202EBC454204670BD0000BE
:104740002DE9F04F21F0004487B0B4F1795F824643
:104750008B46CDE9022304DA01F0EEFF002800F0D9
:10476000B08052465B465046594601F04BFD58A377
:10477000D3E9002306460F4601F044FD56A3D3E9D2
:10478000002301F08DFB02460B463046394601F00E
:1047900039FD53A3D3E9002301F080FB02460B4609
:1047A0003046394601F02EFD4FA3D3E9002301F036
:1047B00077FB02460B463046394601F023FD4CA3F9
:1047C000D3E9002301F06AFB02460B463046394626
:1047D00001F018FD48A3D3E9002301F061FB0B466B
:1047E00002463946304601F00DFD454B9C4280465D
:1047F000894626DC0022434B3046394601F002FD53
:1048000042464B46CDE900013046394601F0FAFCFC
:10481000DDE9022304460D465046594601F0F2FCFC
:1048200002460B462046294601F038FB02460B465D
:10483000DDE9000101F032FB02460B46002032495F
:104840003CE0324B9C4205DCA4F5001300221446E8
:104850001D4601E02E4D002422462B4600202A4909
:1048600001F01CFB0022274BCDE900013046394600
:1048700001F0C8FC22462B4601F010FB42464B4695
:10488000CDE904013046394601F0BCFCDDE90223E4
:1048900004460D465046594601F0B4FC02460B460C
:1048A0002046294601F0FAFA02460B46DDE90401EA
:1048B00001F0F4FA02460B46DDE9000101F0EEFAE0
:1048C00001E01149002007B0BDE8F08FAFF3008090
:1048D000D43888BEE9FAA8BDC4B1B4BD9EEE213E6D
:1048E000AD529C804F7E923E9015CB19A001FA3EAE
:1048F0007751C1166CC1563F4C5555555555A53F7E
:104900003233D33F0000E03F0000F03F0000E93FBA
:104910000000D23FAFF300802DE9F04FADF5197DD7
:104920001446182705930AAE0491AC4BA299059A38
:104930000990E01E53F821301821013A00920293A9
:1049400001F036FA0299A39A20EAE0700890C34376
:1049500007FB0347009C051B04EB0109002402EB45
:1049600085080BE0EC4204D458F8240001F0E4FB85
:1049700001E0002000210134E6E902014C45F1DDAF
:104980000DF5B47900244D4617E074E90223013691
:10499000F5E8020101F036FC02460B465046594646
:1049A00001F07EFA82468B46009B9E42EDDD4C462E
:1049B0003D4601344746E5E902AB02998C4201DDF0
:1049C0000D4614E0059A0CABDDF824804FF0000A88
:1049D00004EB02094FF0000B002603EBC9092B463C
:1049E0004A464546A146B84614461F46DCE74FEA0C
:1049F000C50898AC04EB08035CA988442C4653E92D
:104A00003CAB434683AEA8461D4622E00022744BD1
:104A10005046594601F0F6FB013C01F08DFE01F0D5
:104A20008BFB00226F4BCDE9060101F0EBFB024648
:104A30000B465046594601F031FA01F07DFEDDE9A2
:104A4000062346F8040F75E9020101F029FA8246AF
:104A50008B46002CDADC3A4650465946454601F072
:104A60006BF800224FF07F538046894601F0CAFB65
:104A700000F09EFF00225C4B01F0C4FB02460B4697
:104A80004046494601F00AFA8946804601F054FE44
:104A9000064601F051FB02460B464046494601F0EE
:104AA000FDF9002F8046894615DD6B1E98AAC7F1D7
:104AB000180102EB830353F8502C42FA01FB5E44C9
:104AC0000BFA01FBCBEB0202C7F1170B43F8502C9A
:104AD00042FA0BFB10E007D198AC04EB850353F8C6
:104AE000543C4FEAE35B07E00022404B01F010FE2C
:104AF00030B94FF0000B52E0BBF1000F02DC4EE08A
:104B00004FF0020B0023013684AA1C460EE052F837
:104B1000041B1CB949B1C1F1807103E0C1F1FF115F
:104B200001F57F41012442F8041C0133AB42EEDB66
:104B3000002F1BDD012F02D0022F17D10AE06B1EC0
:104B400098A901EB830353F8502C22F07F4222F402
:104B5000000209E06B1E98AA02EB830353F8502C65
:104B600022F07F4222F4400243F8502CBBF1020FA6
:104B700015D142464B4600201D4901F08FF9804671
:104B8000894664B13A460020194900F0D5FF024633
:104B90000B464046494601F081F980468946404629
:104BA00049460022002301F095FD00287CD0002317
:104BB00084AC29461A4604EB850001E0C458224320
:104BC000029C0139043BA142F8DA002A6FD184A982
:104BD0004FF0010B01EB84030EE000BF001A020846
:104BE0000000703E00007041000020400000E03FE7
:104BF0000000F03F0BF1010B53F8042D002AF9D00F
:104C000005995CAA02EBC50A0CAA6B186C1CAB4494
:104C1000A39902EBC302089B00260A92ED18B8463E
:104C200001EB85050B95554639E00B990A9A8B19CE
:104C300002EB4607586801F07FFA059ADDF82490E8
:104C40000CAB04EB020A002203EBCA0A0023CDE9F5
:104C500006234B465246C146A246A84614461D4668
:104C6000C7E9000100270EE074E902230137F5E8E7
:104C7000020101F0C7FA02460B46DDE9060101F028
:104C80000FF9CDE90601009B9F42EDDD5446DDE9B9
:104C9000062345460134C8460436E5E902235C454F
:104CA000C3DD47465D46A2E6059670B100E0059675
:104CB00084AC183F04EB8503013D01E0013D183F42
:104CC00053F8042D002AF9D039E0404649467A428B
:104CD00000F032FF0022954B8046894601F018FD16
:104CE00020B30022924B4046494601F08BFA183718
:104CF00001F022FD01F020FA98AA02EB85048B4B0B
:104D000000220135CDE9000101F07CFA0B46024694
:104D10004946404601F0C2F801F00EFD98AB44F858
:104D2000500C03EB8504DDE9000104E098A940463E
:104D300001EB8504494601F0FFFC44F8500C3A466B
:104D400000207C492F4600F0F7FE5CAA84AB0026C9
:104D500002EBC50803EB8509CDE9000117E059F81E
:104D6000060008EB460401F0E7F9013F043E024665
:104D70000B46DDE9000101F045FA00226C4BC4E965
:104D80000001DDE9000101F03DFACDE90001002F4D
:104D9000E5DA0DF1C80A2E460027A84654461CE065
:104DA000F4E902230135F6E9020101F02BFA02468B
:104DB0000B46DDE9000101F073F8CDE9000102992D
:104DC0008D4201DCBD42EBDD4E46DDE90023444669
:104DD000013ED0460137E4E90223002E13DBDFF861
:104DE000589106F1FF3A5CAB002203EBCA0A00239C
:104DF000CDE900234B462246B14654460025C24623
:104E00001E469046DBE7A29C4546032C00F2E88054
:104E1000DFE804F01108080234AA474602EBC8068E
:104E200034467EE098AB444603EBC8060023A6F563
:104E3000C4761F4626E098A9002201EBC804134659
:104E4000A4F5C47408E01046194674E90223013D34
:104E500001F026F802460B46002DF4DABBF1000FF4
:104E600001D003F10043049C10461946C4E9000137
:104E7000B6E01846394676E90223013C01F010F805
:104E800003460F46002CF4DA3A46BBF1000F01D07E
:104E900007F10047049C1846394617461A463B4618
:104EA000C4E9000198AC74E9640100F0F7FF2646FC
:104EB000012402460B4608E010461946F6E9022393
:104EC000013400F0EDFF02460B46AC42F4DDBBF1CD
:104ED000000F01D003F10043049C10461946C4E9B9
:104EE00002017DE054E90289013FD4E900234046F4
:104EF0004946CDE9022300F0D3FFCDE90001404649
:104F0000DDE90023494600F0C9FF02460B46DDE912
:104F1000020100F0C5FFDDE90023C4E9000164E9F6
:104F20000223002FDEDC2C4627E000BF000070418A
:104F30000000703E0000F03F081A020856E902899E
:104F4000013CD6E9002340464946CDE9022300F062
:104F5000A7FFCDE900014046DDE90023494600F006
:104F60009DFF02460B46DDE9020100F099FFDDE9F5
:104F70000023C6E9000166E90223012CDEDC98ABC0
:104F8000002003EBC5040146A4F5C47404E074E9F1
:104F90000223013D00F084FF012DF8DCBBF1000F7E
:104FA0000DD1049CDDE93423C4E90023DDE9362377
:104FB000C4E9022302460B46C4E9042310E0049C22
:104FC00001F10041349B20612360359B616103F155
:104FD00000436360369BA360379B03F10043E360AB
:104FE000059C04F007000DF5197DBDE8F08F00BFAA
:104FF0002DE9F04F85B006460F46CDE9002321F09C
:105000000043B3F1795F04DA01F096FB002800F069
:105010008C8032463B463046394601F0F3F8324642
:105020003B4604460D4601F0EDF843A3D3E90023C7
:1050300082468B462046294601F0E4F840A3D3E996
:10504000002300F02BFF02460B462046294601F0C4
:10505000D9F83DA3D3E9002300F022FF02460B4616
:105060002046294601F0CEF839A3D3E9002300F009
:1050700015FF02460B462046294601F0C3F836A329
:10508000D3E9002300F00CFF0E9B80468946BBB994
:1050900042464B462046294601F0B4F830A3D3E9F6
:1050A000002300F0FBFE02460B465046594601F035
:1050B000A9F802460B463046394600F0F1FE32E0D0
:1050C0000022294BDDE9000101F09CF842464B46E5
:1050D000CDE902015046594601F094F802460B46CC
:1050E000DDE9020100F0DAFE02460B4620462946C1
:1050F00001F088F8DDE9002300F0D0FE18A3D3E921
:10510000002304460D465046594601F07BF80246FE
:105110000B462046294600F0C3FE02460B463046A9
:10512000394600F0BBFE06460F463046394605B00C
:10513000BDE8F08FAFF300807CD5CF5A3AD9E53D7A
:10514000EB9C2B8AE6E55A3E7DFEB157E31DC73E38
:10515000D561C119A0012A3FA6F810111111813F94
:10516000495555555555C53F0000E03FAFF3008008
:105170002DE9F84320F00046B6F1485F05460F469A
:1051800003DA01F045FE002875D02946284601F0D3
:1051900079FC3B49044601F075FC3A4901F06AFB91
:1051A0000146204601F06EFC374901F061FB0146E3
:1051B000204601F067FC354901F05CFB01462046C2
:1051C00001F060FC324901F053FB0146204601F03A
:1051D00059FC304901F04EFB0146204601F052FCDB
:1051E0002D4B9E4280461ADC20464FF07C5101F048
:1051F00049FC41460646204601F044FC3946044637
:10520000284601F03FFC0146204601F031FB0146F3
:10521000304601F02DFB01464FF07E5027E01F4B3A
:105220004FF07E509E42D4BF06F17F461C4E314661
:1052300001F01EFB4FF07C518146204601F022FC1C
:10524000314601F015FB41460646204601F01AFCA6
:1052500039460446284601F015FC0146204601F077
:1052600007FB0146304601F003FB0146484601F0CA
:10527000FFFABDE8F8834FF07E50BDE8F88300BF29
:105280004ED747ADF6740F317CF29334010DD03711
:10529000610BB63AABAA2A3D9999993E0000483F66
:1052A0000000903E2DE9F04FDDB00C460693669964
:1052B000B84B089053F82170069B013B0393D31E13
:1052C00048BF131D0025A846DB1023EAE3730593AE
:1052D000DE4302EBC606039AC2EB0309679B02EBAF
:1052E000070B03EB890A0DE018EB090F04D45AF8F9
:1052F000050001F073FB00E0002020AB08F101087D
:10530000E8500435D845EFDD069A4FF000090DF559
:10531000907804964FEA820CACF1A00CE34616E0BC
:1053200059F80510013657F8040B029301F0AAFB57
:105330000146504601F09EFA029B8246039A043DC4
:105340009642EDDD079F03F1010948F804ABB9452A
:1053500003DD049E3D4607940BE0089A00250BEB05
:10536000080C4B4607974FF0000A2E461746E146B9
:10537000E4E7AB000DF5B87E0EEB03020DF12C0A4D
:10538000A9464FF0000852F8504C48AAD21804928F
:105390001DE04FF06E5109F1FF3901F073FB01F090
:1053A00037FD01F01BFB4FF08741834601F06AFB9C
:1053B0000146204601F05CFA01F02AFD049B53F8F7
:1053C00008104AF8040F584601F054FA0446B9F19F
:1053D000000FA8F104082046DBDC314600F08AFC0F
:1053E0004FF07851044601F04DFB00F019FC4FF0EE
:1053F000824101F047FB0146204601F039FA804620
:1054000001F006FD044601F0E9FA0146404601F0CC
:105410002FFA002E814614DD6B1E0CA951F82320B3
:10542000C6F1080142FA01F8444408FA01F80CA94F
:10543000C8EB0202C6F1070841F8232042FA08F837
:105440000FE006D16B1E0CAA52F823304FEA232836
:1054500007E04FF07C5101F0C7FC30B94FF0000875
:1054600048E0B8F1000F02DC44E04FF002080023EE
:1054700001340CAA9A460FE052F8041BBAF1000F4F
:1054800003D141B1C1F5807101E0C1F1FF014FF0DD
:10549000010A42F8041C0133AB42EDDB002E13DDA0
:1054A000012E02D0022E0FD106E06B1E0CA951F87E
:1054B000232002F07F0205E06B1E0CA951F8232087
:1054C00002F03F0241F82320B8F1020F12D1494601
:1054D0004FF07E5001F0CCF98146BAF1000F09D0AF
:1054E00031464FF07E5000F005FC0146484601F081
:1054F000BFF981464846002101F058FC00286FD0D2
:1055000000230DF1300E29461A460EEB850003E00C
:1055100050F803E042EA0E020139043BB942F7DADF
:10552000002A61D10CA94FF0010A01EB870301E0C9
:105530000AF1010A53F8042D002AF9D0DDF818E029
:1055400020A96B1C002405EB0E029B460B969200D3
:105550000492511848AA02EB850209910A9238E098
:10556000049B0DF1800E059A4FF000080EEB030628
:105570004FF00009AB18679A02EB83031B195868B8
:1055800001F02CFA099AAC4613191D4630514646D3
:1055900014E000BF501A0208089B724208F101088B
:1055A000A95898590436CDF808C001F06BFA0146A5
:1055B000484601F05FF9DDF808C08146039A90453E
:1055C000EADD0A9A65460BF1010B13190434C3F89E
:1055D000049005EB0A029345C2DD0B9E1546C8E612
:1055E0000394079C80B101E00394079C0DF1300EF9
:1055F000083E0EEB8503013D01E0013D083E53F8F6
:10560000042D002AF9D02FE04846714200F072FBC9
:105610004FF08741814601F0E7FBF8B14FF06E5142
:10562000484601F02FFA083601F0F2FB01F0D6F9F6
:105630004FF08741824601F025FA0146484601F0C5
:1056400017F901F0E5FB0CA941F82500504601F0DF
:10565000DFFB01350CAA42F8250005E0484601F0C1
:10566000D7FB0CAB43F8250031464FF07E5000F0DD
:1056700041FBAB000CAA48A901EB030BD318A946C8
:105680002A4600261D46824613E0A85909F1FF3933
:10569000019201F0A3F90146504601F0F3F94FF0F1
:1056A0006E514BF80600504601F0ECF9019A043EA9
:1056B0008246B9F1000FE8DA1546002648A906959A
:1056C00001EB8501AA460591B346424629E0DFF881
:1056D000D8E108F101085AF80510019255F80E00BA
:1056E0000435029301F0CEF90146484601F0C2F8B4
:1056F000019A029B814608E0059B00254FF00009B6
:10570000A846C6EB030C5346E246B84501DCD84533
:10571000DDDD34A903F1FF3A0BF1010B46F80190EE
:105720000436BAF1000FE7DA9046669A069D032A1E
:1057300000F2B380DFE802F0081D1D5EB959013D9B
:1057400001F098F8043E04E034A90026002001EBA3
:105750008507002DF2DAB8F1000F01D000F100400A
:1057600020609AE059F80610013F01F083F8043EEA
:1057700005E034AA2F460026002002EB8509002F01
:10578000F0DA0146B8F1000F01D000F100405CAE44
:105790002060012756F8A00D01F06AF804E056F8E1
:1057A000041F013701F066F8AF42F8DDB8F1000FD1
:1057B00001D000F1004060606FE0A9F1040956F8E3
:1057C00007B00AF1FF3A56F80930584619460293D5
:1057D00001F050F8024658461146019201F048F88F
:1057E000029B0146184601F045F8019A46F8090067
:1057F000F25106E034ABAA464FF00409002703EB50
:105800008506043FBAF1000FD7DC34A9AA464FF051
:105810000409002701EB85061BE0A9F1040956F8ED
:1058200007B00AF1FF3A56F8093058461946029374
:1058300001F020F8024658461146019201F018F88E
:10584000029B0146184601F015F8019A46F8090036
:10585000F251043FBAF1010FDFDC34AA0026002028
:1058600002EB850704E0B959013D01F003F8043E5D
:10587000012DF8DCB8F1000F04D1349B2360359B77
:10588000636009E0349B00F1004003F100432360B2
:10589000359B03F100436360A060039B03F00700A6
:1058A0005DB0BDE8F08F00BF5C1A02082DE9F84337
:1058B00020F00043B3F1485F04460D46914603DAF9
:1058C00001F0A6FA00285BD02146204601F0DAF864
:1058D0002146064601F0D6F82B490746304601F02E
:1058E000D1F82A4900F0C4FF0146304601F0CAF859
:1058F000274900F0BFFF0146304601F0C3F82549B3
:1059000000F0B6FF0146304601F0BCF8224900F035
:10591000B1FF8046B9F1000F0FD14146304601F08A
:10592000B1F81E4900F0A4FF0146384601F0AAF87C
:105930000146204600F09EFF21E028464FF07C51B2
:1059400001F0A0F841468146384601F09BF8014637
:10595000484600F08DFF0146304601F093F8294695
:1059600000F086FF0D490546384601F08BF80146E8
:10597000284600F07FFF0146204600F079FF0446EC
:105980002046BDE8F88300BFD3C92E2F342FD7326D
:105990001BEF3836010D50398988083CABAA2A3EE6
:1059A00021F0004000F1004000F58010C00F70476A
:1059B0002DE9F84FC1F30A57A7F2FF368246132E9E
:1059C0008B460C468146054636DC002E17DA38A396
:1059D000D3E9002300F064FA0022002300F0A2FEC5
:1059E00000285FD0002C5BDA2BF0004343EA0A0565
:1059F000314B002D18BF002518BF1C4652E02F4F19
:105A0000374107EA010303434ED029A3D3E900231A
:105A100000F046FA0022002300F084FE002841D066
:105A2000002C05DA4FF4801353FA06F60BEB06044C
:105A300024EA0704002535E0332E09DDB6F5806F32
:105A400032D102460B4600F02BFA82468B462BE001
:105A50004FF0FF38A7F2134328FA03F818EA000FB3
:105A600022D013A3D3E9002300F01AFA0022002366
:105A700000F058FEB0B1002C0FDA142E01D1013421
:105A80000BE00123C7F58667033713FA07F70AEB24
:105A90000705554538BF0BEB030425EA080501E06F
:105AA00000252C46A346AA4650465946BDE8F88F25
:105AB0009C7500883CE4377E0000F0BFFFFF0F00BC
:105AC0000B4611B1B1F1004F00D1E0B1124AA3F57C
:105AD0008011914219D903F1FF4101F5E001914292
:105AE00013D90E4A934212D903F1004191420ED9C3
:105AF0000B4A934202D013F5801F0AD1D0F1010066
:105B000038BF0020704702207047042070470320F0
:105B100070470020704700BFFFFFDF7FFFFF0F00CF
:105B20000000F07F0020704700200149704700BF4F
:105B30000000F87F000000002DE9F843C1F30A5788
:105B400004460D4616460B467FB921F00043034339
:105B500052D000222E4B00F055FB2E4B9E420446A5
:105B60000D468046894609DA33E040F2FF729742DB
:105B700008D102460B4600F093F93BE0C1F30A5707
:105B80000B46363FBA1940F2FE718A420FDC002AFA
:105B900006DD23F0FF4323F4E00343EA02552BE044
:105BA00012F1350F19DA4CF250339E420ADD2246CB
:105BB0002B4613A1D1E9000100F0EAF810A3D3E9C4
:105BC000002315E010A1D1E9000122462B4600F088
:105BD000DFF80DA3D3E900230AE0363223F0FF43B8
:105BE00023F4E003204643EA02550B4B29460022EA
:105BF00000F008FB04460D4620462946BDE8F88320
:105C00009C7500883CE4377E59F3F8C21F6EA501ED
:105C100000005043B03CFFFF0000903CAFF3008019
:105C200070B520F0004601460446F50D7F3D162D67
:105C300024DC002D0DDA174900F01CFE002101F0D4
:105C4000DDF818B3002C20DA134B002E18BF1C46C9
:105C50001CE0124E2E41064219D00E4900F00AFEF9
:105C6000002101F0CBF888B1002C04DA4FF40003D6
:105C700053FA05F5641924EA060407E0B6F1FF4F6C
:105C800005D300F0F7FD014601E000242146084657
:105C900070BD00BFCAF24971000080BFFFFF7F00E6
:105CA000F0B1B0F1004F1BD0A0F500026FF001433E
:105CB0009A4217D900F1FF429A4213D90C4A431E67
:105CC000934211D900F10043013B93420CD9B0F14A
:105CD000FF4F0BD010F5000F14BF002001207047BC
:105CE000022070470420704703207047012070474E
:105CF000FEFF7F0030F00042034610B50C4601461F
:105D00003ED0B2F1FF4F03D3014600F0B3FD36E0C1
:105D1000B2F5000F0CD24FF0984100F0B3FE194AD3
:105D20009442034620DBC0F3C7520146193A00E013
:105D3000D20D1219FE2A0DDC002A04DD21F0FF41EC
:105D400041EAC2531CE012F1160F0FDA4CF2503246
:105D5000944205DD19460C4800F024F80A490CE08D
:105D60000A48194600F01EF8084906E0193221F0E9
:105D7000FF4141EAC2504FF04C5100F083FE034610
:105D8000184610BDB03CFFFFCAF249716042A20D37
:105D900003F0004321F0004230B50D46044643EACB
:105DA000020130BD01F0004120F00040084370477F
:105DB000002956D080EA010C48BF49424A1E38D01B
:105DC000030048BF43428B4238D911423ED0B1FA5A
:105DD00081F2B3FA83F0A2EB00004FF0010201FA66
:105DE00000F102FA00F24FF000008B4224BF5B1A70
:105DF0001043B3EB510F24BFA3EB510340EA520011
:105E0000B3EB910F24BFA3EB910340EA9200B3EBF5
:105E1000D10F24BFA3EBD10340EAD200002B1CBF5B
:105E20005FEA12120909E0D1BCF1000F48BF4042FD
:105E300070479CEA000F48BF4042704738BF0020BF
:105E400004BF4FEAEC7040F001007047B1FA81F2F4
:105E5000C2F11F02BCF1000F23FA02F048BF40421A
:105E600070470028C8BF6FF00040B8BF4FF0004037
:105E700000F00EB80029F4D02DE90340FFF79AFF97
:105E8000BDE8064002FB00F3A1EB0301704700BF31
:105E9000704700BF81F0004102E000BF83F0004383
:105EA00030B54FEA41044FEA430594EA050F08BFB5
:105EB00090EA020F1FBF54EA000C55EA020C7FEA79
:105EC000645C7FEA655C00F0E2804FEA5454D4EBF6
:105ED0005555B8BF6D420CDD2C4480EA020281EAC0
:105EE000030382EA000083EA010180EA020281EAF8
:105EF0000303362D88BF30BD11F0004F4FEA01314A
:105F00004FF4801C4CEA113102D0404261EB410158
:105F100013F0004F4FEA03334CEA133302D05242DE
:105F200063EB430394EA050F00F0A780A4F101049A
:105F3000D5F1200E0DDB02FA0EFC22FA05F28018D4
:105F400041F1000103FA0EF2801843FA05F35941BA
:105F50000EE0A5F120050EF1200E012A03FA0EFC39
:105F600028BF4CF0020C43FA05F3C01851EBE37163
:105F700001F0004507D54FF0000EDCF1000C7EEB80
:105F800000006EEB0101B1F5801F1BD3B1F5001FBE
:105F90000CD349085FEA30004FEA3C0C04F10104DD
:105FA0004FEA445212F5800F80F09A80BCF1004F06
:105FB00008BF5FEA500C50F1000041EB045141EA88
:105FC000050130BD5FEA4C0C404141EB010111F489
:105FD000801FA4F10104E9D191F0000F04BF014634
:105FE0000020B1FA81F308BF2033A3F10B03B3F112
:105FF00020020CDA0C3208DD02F1140CC2F10C02A2
:1060000001FA0CF021FA02F10CE002F11402D8BFFF
:10601000C2F1200C01FA02F120FA0CFCDCBF41EACB
:106020000C019040E41AA2BF01EB0451294330BD9A
:106030006FEA04041F3C1CDA0C340EDC04F1140477
:10604000C4F1200220FA04F001FA02F340EA03004E
:1060500021FA04F345EA030130BDC4F10C04C4F194
:10606000200220FA02F001FA04F340EA0300294674
:1060700030BD21FA04F0294630BD94F0000F83F4BE
:10608000801306BF81F480110134013D4EE77FEAA1
:10609000645C18BF7FEA655C29D094EA050F08BFED
:1060A00090EA020F05D054EA000C04BF19461046CE
:1060B00030BD91EA030F1EBF0021002030BD5FEA12
:1060C000545C05D14000494128BF41F0004130BD3A
:1060D00014F580043CBF01F5801130BD01F000458E
:1060E00045F0FE4141F470014FF0000030BD7FEA01
:1060F000645C1ABF194610467FEA655C1CBF0B46FC
:10610000024650EA013406BF52EA033591EA030F12
:1061100041F4002130BD00BF90F0000F04BF00210A
:10612000704730B54FF4806404F132044FF000053D
:106130004FF0000150E700BF90F0000F04BF0021B6
:10614000704730B54FF4806404F1320410F000451C
:1061500048BF40424FF000013EE700BF42004FEA17
:10616000E2014FEA31014FEA02701FBF12F07F4394
:1061700093F07F4F81F06051704792F0000F14BF91
:1061800093F07F4F704730B54FF4607401F00045D5
:1061900021F0004120E700BF50EA010208BF70472C
:1061A00030B54FF000050AE050EA010208BF704721
:1061B00030B511F0004502D5404261EB41014FF48A
:1061C000806404F132045FEA915C3FF4DCAE4FF08E
:1061D00003025FEADC0C18BF03325FEADC0C18BF75
:1061E000033202EBDC02C2F1200300FA03FC20FAC6
:1061F00002F001FA03FE40EA0E0021FA02F1144413
:10620000C1E600BF70B54FF0FF0C4CF4E06C1CEA27
:1062100011541DBF1CEA135594EA0C0F95EA0C0F9C
:1062200000F0DEF82C4481EA030621EA4C5123EA0F
:106230004C5350EA013518BF52EA033541F480113E
:1062400043F4801338D0A0FB02CE4FF00005E1FBF1
:1062500002E506F00042E0FB03E54FF00006E1FB3B
:1062600003569CF0000F18BF4EF0010EA4F1FF047E
:10627000B6F5007F64F5407404D25FEA4E0E6D41BE
:1062800046EB060642EAC62141EA55514FEAC520CF
:1062900040EA5E504FEACE2EB4F1FD0C88BFBCF54B
:1062A000E06F1ED8BEF1004F08BF5FEA500E50F1FC
:1062B000000041EB045170BD06F0004646EA0101C2
:1062C00040EA020081EA0301B4EB5C04C2BFD4EBF4
:1062D0000C0541EA045170BD41F480114FF0000EED
:1062E000013C00F3AB8014F1360FDEBF002001F05B
:1062F000004170BDC4F10004203C35DA0C341BDCD5
:1063000004F11404C4F1200500FA05F320FA04F0A6
:1063100001FA05F240EA020001F0004221F00041DA
:1063200010EBD37021FA04F642EB06015EEA430E4D
:1063300008BF20EAD37070BDC4F10C04C4F120057D
:1063400000FA04F320FA05F001FA04F240EA020030
:1063500001F0004110EBD37041F100015EEA430E01
:1063600008BF20EAD37070BDC4F1200500FA05F221
:106370004EEA020E20FA04F301FA05F243EA0203A0
:1063800021FA04F001F0004121FA04F220EA0200AF
:1063900000EBD3705EEA430E08BF20EAD37070BDF5
:1063A00094F0000F0FD101F00046400041EB0101D5
:1063B00011F4801F08BF013CF7D041EA060195F0B7
:1063C000000F18BF704703F00046520043EB030371
:1063D00013F4801F08BF013DF7D043EA060370475E
:1063E00094EA0C0F0CEA135518BF95EA0C0F0CD069
:1063F00050EA410618BF52EA4306D1D181EA0301AF
:1064000001F000414FF0000070BD50EA410606BFA8
:106410001046194652EA430619D094EA0C0F02D1ED
:1064200050EA013613D195EA0C0F05D152EA033632
:106430001CBF104619460AD181EA030101F0004150
:1064400041F0FE4141F470014FF0000070BD41F099
:10645000FE4141F4780170BD70B54FF0FF0C4CF473
:10646000E06C1CEA11541DBF1CEA135594EA0C0F92
:1064700095EA0C0F00F0A7F8A4EB050481EA030EDF
:1064800052EA03354FEA013100F088804FEA0333C6
:106490004FF0805545EA131343EA12634FEA022294
:1064A00045EA111545EA10654FEA00260EF0004155
:1064B0009D4208BF964244F1FD0404F5407402D2A7
:1064C0005B084FEA3202B61A65EB03055B084FEA38
:1064D00032024FF480104FF4002CB6EB020E75EB35
:1064E000030E22BFB61A754640EA0C005B084FEA5D
:1064F0003202B6EB020E75EB030E22BFB61A7546DA
:1065000040EA5C005B084FEA3202B6EB020E75EB24
:10651000030E22BFB61A754640EA9C005B084FEA9C
:106520003202B6EB020E75EB030E22BFB61A7546A9
:1065300040EADC0055EA060E18D04FEA051545EA98
:1065400016754FEA06164FEAC30343EA52734FEA41
:10655000C2025FEA1C1CC0D111F4801F0BD141EABA
:1065600000014FF000004FF0004CB6E711F4801F1F
:1065700004BF01430020B4F1FD0C88BFBCF5E06FFF
:106580003FF6AFAEB5EB030C04BFB6EB020C5FEA0F
:10659000500C50F1000041EB045170BD0EF0004E64
:1065A0004EEA113114EB5C04C2BFD4EB0C0541EA96
:1065B000045170BD41F480114FF0000E013C90E693
:1065C00045EA060E8DE60CEA135594EA0C0F08BF57
:1065D00095EA0C0F3FF43BAF94EA0C0F0AD150EA56
:1065E00001347FF434AF95EA0C0F7FF425AF1046E9
:1065F00019462CE795EA0C0F06D152EA03353FF411
:10660000FDAE1046194622E750EA410618BF52EA8D
:1066100043067FF4C5AE50EA41047FF40DAF52EA61
:1066200043057FF4EBAE12E74FF0FF3C06E000BFFE
:106630004FF0010C02E000BF4FF0010C4DF804CD0B
:106640004FEA410C7FEA6C5C4FEA430C18BF7FEACB
:106650006C5C1BD001B050EA410C0CBF52EA430CF9
:1066600091EA030F02BF90EA020F0020704710F179
:10667000000F91EA030F58BF994208BF90422CBF08
:10668000D8176FEAE37040F0010070474FEA410C01
:106690007FEA6C5C02D150EA013C07D14FEA430C1F
:1066A0007FEA6C5CD6D152EA033CD3D05DF8040B90
:1066B000704700BF8446104662468C4619466346C2
:1066C00000E000BF01B5FFF7B7FF002848BF10F199
:1066D000000F01BD4DF808EDFFF7F4FF0CBF0120DE
:1066E00000205DF808FB00BF4DF808EDFFF7EAFF5A
:1066F00034BF012000205DF808FB00BF4DF808ED15
:10670000FFF7E0FF94BF012000205DF808FB00BF09
:106710004DF808EDFFF7CEFF94BF012000205DF893
:1067200008FB00BF4DF808EDFFF7C4FF34BF0120A0
:1067300000205DF808FB00BF4FEA410212F500128D
:1067400015D211D56FF47873B3EB625212D94FEAB8
:10675000C12343F0004343EA505311F0004F23FAA2
:1067600002F018BF404270474FF00000704750EAF7
:10677000013005D111F0004008BF6FF000407047B4
:106780004FF00000704700BF4A0011D212F500120E
:1067900011D20DD56FF47873B3EB62520ED44FEA79
:1067A000C12343F0004343EA505323FA02F07047F9
:1067B0004FF00000704750EA013002D14FF0FF3037
:1067C00070474FF0000070474FEA4102B2F1E043DA
:1067D00024BFB3F5001CDCF1FE5C0DD901F0004CC8
:1067E0004FEAC0024CEA5070B2F1004F40EB830018
:1067F00008BF20F00100704711F0804F21D113F144
:106800003872BCBF01F00040704741F480114FEA7C
:106810005252C2F11802C2F1200C10FA0CF320FA05
:1068200002F018BF40F001004FEAC1234FEAD32322
:1068300003FA0CFC40EA0C0023FA02F34FEA43038C
:10684000CCE77FEA625307D150EA01331EBF4FF015
:10685000FE4040F44000704701F0004040F0FE4030
:1068600040F40000704700BF80F0004002E000BF2D
:1068700081F0004142001FBF5FEA410392EA030F2B
:106880007FEA226C7FEA236C6AD04FEA1262D2EB75
:106890001363C1BFD218414048404140B8BF5B427A
:1068A000192B88BF704710F0004F40F4000020F013
:1068B0007F4018BF404211F0004F41F4000121F029
:1068C0007F4118BF494292EA030F3FD0A2F1010273
:1068D00041FA03FC10EB0C00C3F1200301FA03F1B1
:1068E00000F0004302D5494260EB4000B0F5000FD4
:1068F00013D3B0F1807F06D340084FEA310102F193
:106900000102FE2A51D2B1F1004F40EBC25008BF44
:1069100020F0010040EA03007047490040EB00000E
:1069200010F4000FA2F10102EDD1B0FA80FCACF13D
:10693000080CB2EB0C0200FA0CF0AABF00EBC2503C
:1069400052421843BCBFD0401843704792F0000F2A
:1069500081F4000106BF80F400000132013BB5E77D
:106960004FEA41037FEA226C18BF7FEA236C21D0F3
:1069700092EA030F04D092F0000F08BF0846704758
:1069800090EA010F1CBF0020704712F07F4F04D126
:10699000400028BF40F00040704712F100723CBF39
:1069A00000F50000704700F0004343F0FE4040F463
:1069B000000070477FEA226216BF08467FEA236321
:1069C0000146420206BF5FEA412390EA010F40F40C
:1069D000800070474FF0000304E000BF10F0004358
:1069E00048BF40425FEA000C08BF704743F096433F
:1069F00001464FF000001CE050EA010208BF70475A
:106A00004FF000030AE000BF50EA010208BF7047E0
:106A100011F0004302D5404261EB41015FEA010CF5
:106A200002BF84460146002043F0B64308BFA3F1ED
:106A30008053A3F50003BCFA8CF2083AA3EBC253CF
:106A400010DB01FA02FC634400FA02FCC2F12002EE
:106A5000BCF1004F20FA02F243EB020008BF20F025
:106A60000100704702F1200201FA02FCC2F120028B
:106A700050EA4C0021FA02F243EB020008BF20EA80
:106A8000DC7070474FF0FF0C1CEAD0521EBF1CEAAE
:106A9000D15392EA0C0F93EA0C0F6FD01A4480EA9C
:106AA000010C400218BF5FEA41211ED04FF0006385
:106AB00043EA501043EA5111A0FB01310CF00040B1
:106AC000B1F5000F3EBF490041EAD3715B0040EAD7
:106AD000010062F17F02FD2A1DD8B3F1004F40EBA7
:106AE000C25008BF20F00100704790F0000F0CF07A
:106AF000004C08BF49024CEA502040EA51207F3A3E
:106B0000C2BFD2F1FF0340EAC250704740F4000018
:106B10004FF00003013A5DDC12F1190FDCBF00F009
:106B200000407047C2F10002410021FA02F1C2F1B7
:106B3000200200FA02FC5FEA310040F1000053EA53
:106B40004C0308BF20EADC70704792F0000F00F0A1
:106B5000004C02BF400010F4000F013AF9D040EAA7
:106B60000C0093F0000F01F0004C02BF490011F43B
:106B7000000F013BF9D041EA0C018FE70CEAD15339
:106B800092EA0C0F18BF93EA0C0F0AD030F0004CB9
:106B900018BF31F0004CD8D180EA010000F000406D
:106BA000704790F0000F17BF90F0004F084691F02B
:106BB000000F91F0004F14D092EA0C0F01D1420265
:106BC0000FD193EA0C0F03D14B0218BF084608D12E
:106BD00080EA010000F0004040F0FE4040F4000078
:106BE000704740F0FE4040F4400070474FF0FF0C0B
:106BF0001CEAD0521EBF1CEAD15392EA0C0F93EA52
:106C00000C0F69D0A2EB030280EA010C49024FEAA3
:106C1000402037D04FF0805343EA111143EA10135C
:106C20000CF000408B4238BF5B0042F17D024FF414
:106C3000000C8B4224BF5B1A40EA0C00B3EB510FEF
:106C400024BFA3EB510340EA5C00B3EB910F24BFD8
:106C5000A3EB910340EA9C00B3EBD10F24BFA3EB5D
:106C6000D10340EADC001B0118BF5FEA1C1CE0D125
:106C7000FD2A3FF650AF8B4240EBC25008BF20F0D8
:106C8000010070470CF0004C4CEA50207F32C2BF2C
:106C9000D2F1FF0340EAC250704740F400004FF0C9
:106CA0000003013A37E792F0000F00F0004C02BFFA
:106CB000400010F4000F013AF9D040EA0C0093F0C4
:106CC000000F01F0004C02BF490011F4000F013B1E
:106CD000F9D041EA0C0195E70CEAD15392EA0C0F86
:106CE00008D142027FF47DAF93EA0C0F7FF470AFBE
:106CF000084676E793EA0C0F04D14B023FF44CAF01
:106D000008466EE730F0004C18BF31F0004CCAD195
:106D100030F000427FF45CAF31F000437FF43CAFD1
:106D20005FE700BF4FF0FF3C06E000BF4FF0010CF3
:106D300002E000BF4FF0010C4DF804CD4FEA4002D5
:106D40004FEA41037FEA226C18BF7FEA236C11D01F
:106D500001B052EA530C18BF90EA010F58BFB2EBD2
:106D6000030088BFC81738BF6FEAE17018BF40F052
:106D7000010070477FEA226C02D15FEA402C05D106
:106D80007FEA236CE4D15FEA412CE1D05DF8040B8B
:106D9000704700BF844608466146FFE70FB5FFF71E
:106DA000C9FF002848BF10F1000F0FBD4DF808EDD6
:106DB000FFF7F4FF0CBF012000205DF808FB00BFC7
:106DC0004DF808EDFFF7EAFF34BF012000205DF821
:106DD00008FB00BF4DF808EDFFF7E0FF94BF01206E
:106DE00000205DF808FB00BF4DF808EDFFF7D2FF6B
:106DF00094BF012000205DF808FB00BF4DF808EDAE
:106E0000FFF7C8FF34BF012000205DF808FB00BF7A
:106E10004FEA4002B2F1FE4F0FD34FF09E03B3EBA7
:106E200012620DD94FEA002343F0004310F0004FE7
:106E300023FA02F018BF404270474FF0000070473D
:106E400012F1610F01D1420205D110F0004008BFDC
:106E50006FF0004070474FF00000704742000ED2C4
:106E6000B2F1FE4F0BD34FF09E03B3EB126209D485
:106E70004FEA002343F0004323FA02F070474FF03B
:106E80000000704712F1610F01D1420202D14FF0B0
:106E9000FF3070474FF00000704700BF73B96AB908
:106EA000002908BF0028BCBF00204FF00041C4BF2C
:106EB0006FF000414FF0FF30FEF7EABF82B0EC46C2
:106EC0002DE9005000F006F8DDF804E002B00CBC3B
:106ED000704700BFF8B5144606460F461D4600F041
:106EE000E6FE04FB01F300FB0535A4FB0023069C32
:106EF000EB18B21A67EB0303C4E90023F8BDF8B539
:106F0000144606460F461D4601F056F8A0FB042322
:106F1000454304FB0155069CEB18B21A67EB0303CB
:106F2000C4E90023F8BD0000036803B11B1818462C
:106F3000704703685A004CBF43F0004323F00043FE
:106F4000C01870472DE9F84F0446154631B301F1DA
:106F5000FF3A4FF00008D14608EB090606EBD6765B
:106F6000761004EBC6073846FFF7E3FF5645834625
:106F700006D0701C04EBC000FFF7DBFF013801E016
:106F80004FF0FF305D4504D2464509D006F1FF3988
:106F9000E2E7854205D906F10108DDE70F4600E08A
:106FA00000273846BDE8F88F264B37B504468D1EBE
:106FB0003BB1284601A9AFF30080034633B92361F2
:106FC0000BE02148214B1B1ADB1001932A46019943
:106FD000FFF7B8FF054610B92061092031E0FFF73F
:106FE000A8FF6B68012BA06403D100230520236157
:106FF00027E0002B05F1040002DAE064012303E03E
:10700000FFF797FF0023E064E06C23650368002B23
:1070100013DAC3F303631BB90D4A1846226110E06B
:10702000012B4FF0000001D10A4B02E0022B02D1EC
:10703000094B236105E02061CFE7FFF77AFF20616C
:1070400000203EBD0000000064570020445800208E
:107050007D7400087974000875740008036810B521
:10706000DA07044609D413F0020F00F1480002D0F9
:1070700000F0DAFB01E000F0CFFB23685B0703D4EC
:1070800004F1D00000F0D8FB2368180703D404F5FE
:10709000D87000F0D9FB2368D90605D404F50C702C
:1070A000BDE8104000F014BC10BD2DE9F04F01F117
:1070B000040ED0F80CA00546D0F818B01646BEE86D
:1070C0000F00ADF28C4D02AC271D0FC7BEE80F00BC
:1070D0000FC7BEE80F000FC79EE80F0087E80F003C
:1070E00000239846274623602846396CFFF75CFF4B
:1070F000002E14BF4FF00A094FF00909064680B967
:10710000236C21464FF4107292A86B61FBF744F890
:107110002B694846294692AA9847A09B63648046FB
:1071200003E0BB6B49F010097B648DE81008012077
:1071300049462A462B46D04778B97EB9204692A9BF
:107140004FF41072FBF728F8B8F1080FCCD0B8F163
:10715000070F02D1381D00F053FB0926304623B03B
:107160000DF5806DBDE8F08F38B505460C46284614
:10717000216CFFF719FF50B9236C012029462246E4
:107180006B612B6998470828F1D0072801D010F0CF
:1071900023FD201D00F034FB21B104298CBF022007
:1071A0000120704743B90F2A08D800EB8200009AEB
:1071B00041681846116070470220704702207047EE
:1071C0001FB50A46002103AB00930B46FFF7E4FF0F
:1071D000039805B000BD21B104298CBF0220012015
:1071E000704743B90F2A08D8009900EB820009685C
:1071F00041601846704702207047022070471FB553
:107200000B4604A941F8042D1A46009100210B46B3
:10721000FFF7E1FF05B000BD2DE9F04F89B0CD6C5F
:10722000164600F0080202920C4600F0030955F8D9
:10723000042B019305953BB912028DF81930049285
:1072400003238DF818300AE0C2F3074312048DF8C7
:10725000193005EB8305049202228DF81820B9F14C
:10726000020F236D08BFA56B13F0010A00F0D78051
:107270004FF0000ADEE0019B022B02D16F68083557
:1072800002E02E886F880435A36C0F2127F00108D7
:1072900050469844FFF794FF804507D826F0010335
:1072A000984440452CBF0020012000E0002007F05A
:1072B000010706F0010646EA4707012F1BD003D35A
:1072C000022F40F0CF804DE0B9F1000F11D080B116
:1072D00028460435FFF72DFEA5635646074620468F
:1072E000AFF30080002800F0BD8050460F213A46E1
:1072F000B4E0043598E0B9F1000F24D100282FD074
:107300006B682E68991C00F0AD80039A01330792D8
:107310000AD0281DFFF708FEF20F07AB01462046F2
:10732000AFF30080E0B107460D215046FFF748FF5C
:10733000022F5646079A206203D1234643F82C2F8A
:1073400039E0626238E00D215046266AFFF738FFC7
:10735000864205D1A36A9D4202D15646284648E09E
:10736000083561E02B6823F00048B9F1000F26D101
:1073700000284BD0029B93B1B8F1000F11D045E02B
:10738000039A013605EB86000792FFF7CDFD002238
:1073900007AB01462046AFF3008018B136E0029EED
:1073A00000E04E464645EBD150460D21FFF708FF61
:1073B000079B564620626362A562062055E00D21B8
:1073C0005046266AFFF7FCFE86421FD1A36A9D4203
:1073D0001CD10023E3620423C4F828802363EB1844
:1073E00063632B68002B0FDA08F10100564605EBAA
:1073F0008000FFF79EFD0F2102463046FFF7FFFE9B
:1074000030460021224629E04FF0010B2B6808F19D
:107410000108002BB8BF043505EB880504E0D3460E
:10742000B24604F1580203922E68002E7FF423AF77
:107430005646DA46304604A900F0DBFA90B9BAF1B4
:10744000000F11D00F213046FFF7BAFE0E21024681
:107450003046FFF7D4FE064A30460F21FFF7CFFE35
:10746000072002E0092000E0082009B0BDE8F08F05
:10747000000000000223CFE60123CDE60023CBE687
:107480002DE9F0410446E6B015461E46042900F2F7
:107490001081DFE811F007001F000500BF00E900C0
:1074A000012707E1002B40F00481836BADB201227C
:1074B00012FA06F1294204D053F8040B04EB8601BA
:1074C00048600136102EF3D115F4005740F0EF80DC
:1074D000A363EFE0012B02D0052B40F0EA804FEAD6
:1074E0001548ADB205EB0807012E14BF2023102369
:1074F0009F4200F2DE80012E04D1B8F10F0F00F29E
:10750000D88005E0B8F10F0F02D92F4695B302E0FD
:10751000102F04D9103F052E40F0CB8000E000274B
:10752000B8F10F0F14D82368D90711D52046052EBE
:1075300023F0010240F8482B05D142F002022260FC
:1075400000F076F904E023F00303236000F068F90B
:107550004FB123685A0706D5204623F0040340F8AC
:10756000D03B00F06DF9012E04D1684600F058F9C7
:1075700057B90BE0B8F10F0F02D8684600F058F980
:1075800027B122A800F05CF9C8F11005A26B002D0C
:10759000134611DD00A96D0001EBC803294618460A
:1075A00005E0C3EB000C5CF802C040F804CB11F11D
:1075B000FF31F6D202EB8503B7B1B8F1100F2CBF43
:1075C0004546102566AA7900184602EBC5050A460D
:1075D000A5F5C87503E050F804CB45F804CB12F1CB
:1075E000FF32F8D203EB8103012E08BF0433012ED2
:1075F000A36303D1684600F00FF958E0B8F10F0F0C
:1076000002D8684600F010F9002F53D022A800F0ED
:1076100013F94CE0032B4CD12E0CADB2AB19102B4F
:1076200047D803681F0706D523F00803036000F559
:10763000D87000F02BF942A86D0000F027F942AB9A
:1076400003EBC606A26B2F46334604E0991B013FAD
:10765000895843F8041B002FF8D102EB850542A896
:10766000A56300F0F1F825E01BBB102D21D80368BD
:10767000D80606D523F0100304F50C70236000F043
:1076800031F962A800F02EF9A26B0023012111FA52
:1076900003F0284204D052F8046B62A840F823603B
:1076A0000133042BF3D1A26362A800F011F9002783
:1076B00000E00227384666B0BDE8F081406C7047B4
:1076C000CB6BF0B50F1D0B6405460C46ADF5117D77
:1076D0000FCF01AE0FC60FCF0FC60FCF0FC697E863
:1076E0000F0086E80F006E464FF0FF3300932846E8
:1076F000316CFFF759FC78B92B6929466A469847DF
:1077000008280746F3D06846FFF7A8FC062F03D1E8
:1077100028462146FFF728FD09200DF5117DF0BD13
:1077200010B504468261DA6BC16019461A64002202
:10773000BDE81040B9E438B5044643690D460B6412
:10774000C3681BB10122FFF7B0FC10E003692146BA
:1077500002202A469847072802D0082807D102E0CD
:10776000281D00F04DF820462946FFF7FDFC10F0DB
:1077700033FAC26802B9A3E7CA6B0A64002294E430
:10778000704708B5014683680BB10120984708BDD2
:10779000D36BF0B5171D136405460C46ADF5277D78
:1077A0000FCF01AE0FC60FCF0FC60FCF0FC697E892
:1077B0000F0086E80F006E464FF0FF33009390A84D
:1077C000316CFFF7F1FB98B968460C2190AAFFF7DE
:1077D00016FD68462146A84750B9082090A96A4678
:1077E000949B98470528074603D00928E7D100E075
:1077F00009276846FFF732FC38460DF5277DF0BDB6
:1078000000F1340191E838009C46A6464CF8045D2E
:1078100090E8FF0FE54600BD90EC210B704700BFDC
:1078200080EC210B704700BF90EC200B704700BF2D
:1078300080EC200B704700BFD0EC200B704700BFDE
:10784000C0EC200B704700BFF0EC0201F0EC02111D
:10785000F0EC0221F0EC0231F0EC0241F0EC0251CC
:10786000F0EC0261F0EC0271F0EC0281F0EC0291BC
:10787000F0EC02A1F0EC02B1F0EC02C1F0EC02D1AC
:10788000F0EC02E1F0EC02F1704700BFE0EC020125
:10789000E0EC0211E0EC0221E0EC0231E0EC02410C
:1078A000E0EC0251E0EC0261E0EC0271E0EC0281FC
:1078B000E0EC0291E0EC02A1E0EC02B1E0EC02C1EC
:1078C000E0EC02D1E0EC02E1E0EC02F1704700BF35
:1078D000B0FC0181B0FC0191B0FC01A1B0FC01B190
:1078E000704700BFA0FC0181A0FC0191A0FC01A198
:1078F000A0FC01B1704700BFEC4600B52DE9005077
:107900002DE9FF1F4FF000032DE90C0001A9FFF73F
:10791000D7FEDDF840E012B0704700BFEC4600B57E
:107920002DE900502DE9FF1F4FF000032DE90C0059
:1079300001A9FFF700FFDDF840E012B0704700BF7B
:10794000EC4600B52DE900502DE9FF1F4FF0000374
:107950002DE90C0001A9FFF70CFFDDF840E012B0A3
:10796000704700BFEC4600B52DE900502DE9FF1F20
:107970004FF000032DE90C0001ABFFF7D1FEDDF85D
:1079800040E012B0704700BFEC4600B52DE9005052
:107990002DE9FF1F4FF000032DE90C0001AAFFF7AE
:1079A000F7FEDDF840E012B0704700BF027A0346F0
:1079B00052B9427A7AB1013A4272426852F8041BD3
:1079C00080E80600032200E0013A1A721A68100EDD
:1079D00012021A607047B02070471FB5002103AB38
:1079E0000C2200930B46FFF7D7FB039805B000BDB0
:1079F000F3E72DE9FF4705460E4600270DF10C0879
:107A00004FF47F6A3046FFF7D1FFB028044613D108
:107A1000002F40F01D8139460E223B46284603AC1C
:107A20000094FFF7B9FB284639460F223B460094E5
:107A3000FFF7D1FB38460EE110F0800115D14FEA77
:107A400080090D220B462846CDF80080FFF7A4FBE5
:107A5000039B5FFA89F909F1040914F0400F14BF80
:107A6000C9EB03034B4403932EE000F0F003802B9B
:107A700019D104023046FFF799FF0443B4F5004FD3
:107A800000F0E8802205002128460B46120C4FEA40
:107A90000419FFF7F5FC002840F0DC8019F4004FD2
:107AA00018BF0127AEE7902B17D100F00F020D2A67
:107AB00000F0D0800F2A00F0CD80002128460B4630
:107AC000CDF80080FFF768FB28460021CDF8008044
:107AD0000D220B46FFF77FFB94E7A02B0DD1C2438D
:107AE000030702F0070228464AFA02F202F47F6214
:107AF00048BF42F48042002180E0B02B54D1B1282D
:107B00000CD13046FFF752FF0246002800F0A28059
