:020000040800F2
:1020000000000120210E0108D90D0108DB0D010897
:10201000DD0D0108DF0D0108E10D010800000000E1
:10202000000000000000000000000000E30D0108B7
:10203000E30D010800000000E30D0108A589000878
:10204000E30D0108E30D0108E30D0108E30D0108AC
:10205000E30D0108E30D0108E30D0108E30D01089C
:10206000E30D0108E30D0108E30D0108E30D01088C
:10207000E30D0108E30D010811300108E30D01082B
:10208000E30D0108E30D0108A5120108E30D0108A5
:10209000E30D0108E30D0108E30D0108E30D01085C
:1020A000E30D0108E30D0108E30D0108E30D01084C
:1020B000E30D0108E30D0108E30D0108E30D01083C
:1020C000E30D0108E30D0108E30D0108E30D01082C
:1020D000E30D0108D1160108591001080511010886
:1020E000E30D0108E30D0108E30D0108E30D01080C
:1020F000E30D0108E30D0108E30D0108E30D0108FC
:10210000E30D0108E30D0108E30D0108E30D0108EB
:10211000E30D0108E30D01080D160108E30D0108A8
:10212000E30D0108E30D0108E30D0108E30D0108CB
:1021300010B5002302E0CC5CC45401339342FAD1C1
:1021400010BD0000000000004D4B2DE9F34721F0C9
:1021500000469E4204460D468A4613DD494A964291
:1021600001DC07D130B12046294622462B4605F036
:1021700037FB30E1444B454D454CBAF1000FC8BF29
:102180001D464DE1434B9E4211DCA3F1DE739E429E
:1021900000F38C8038A3D3E9002305F021FB002253
:1021A0003D4B05F05FFF002800F0808038E100F033
:1021B000A3F93A4B9E4204460D4634DCA3F5502366
:1021C0009E421ADC02460B4605F00AFB0022324B07
:1021D00005F004FB00224FF0804306460F462046E0
:1021E000294605F0FDFA02460B463046394605F011
:1021F000D3FD002604460D465AE00022264B05F08A
:10220000EDFA0022244B06460F462046294605F0EB
:10221000E7FA02460B463046394605F0BDFD012679
:1022200004460D4644E01E4B9E4219DC00221D4B25
:1022300005F0D4FA00221B4B06460F4620462946DD
:1022400005F080FC0022144B05F0CAFA02460B464A
:102250003046394605F0A0FD022604460D4627E02B
:1022600022462B460020104905F096FD0326044621
:102270000D461DE0AFF300809C7500883CE4377E7E
:10228000FFFF0F440000F07FFB21F93FFB21F9BF66
:10229000182D4454FFFFDB3F0000F03FFFFFF23FEB
:1022A000FF7F03400000F83F0000F0BF4FF0FF3613
:1022B00022462B462046294605F044FC02460B46A2
:1022C000CDE9000105F03EFC57A3D3E90023804689
:1022D000894605F037FC56A3D3E9002305F080FAC0
:1022E00002460B464046494605F02CFC52A3D3E972
:1022F000002305F075FA02460B464046494605F0B4
:1023000021FC4FA3D3E9002305F06AFA02460B46ED
:102310004046494605F016FC4BA3D3E9002305F0DF
:102320005FFA02460B464046494605F00BFC48A3BF
:10233000D3E9002305F054FA02460B46DDE900011B
:1023400005F000FC44A3D3E90023CDE90001404699
:10235000494605F0F7FB42A3D3E9002305F03EFA16
:1023600002460B464046494605F0ECFB3EA3D3E946
:10237000002305F033FA02460B464046494605F075
:10238000E1FB3BA3D3E9002305F028FA02460B4604
:102390004046494605F0D6FB37A3D3E9002305F0B4
:1023A0001DFA02460B464046494605F0CBFB0B465C
:1023B000711C024612D1DDE9000105F011FA024656
:1023C0000B462046294605F0BDFB02460B4620463B
:1023D000294605F003FA04460D4621E0284901EBA1
:1023E000C606DDE9000105F0FBF902460B46204672
:1023F000294605F0A7FBD6E9082305F0EFF92246A8
:102400002B4605F0EBF902460B46D6E9000105F034
:10241000E5F9BAF1000F0D460446B8BF01F10045D9
:1024200020462946BDE8FC8711DA22E33AAD903F09
:10243000EB0D76244B7BA93F513DD0A0660DB13FFB
:102440006E204CC5CD45B73FFF8300922449C23F63
:102450000D5555555555D53F2F6C6A2C44B4A2BF28
:102460009AFDDE522DDEAD3F6D9A74AFF2B0B33FF0
:10247000711623FEC671BC3FC4EB98999999C93F68
:1024800070A10108AFF30080194A21F0004330B574
:10249000934287B004460D4602DC0022002315E07B
:1024A000144A934204DD02460B4605F097F91DE0FD
:1024B00002AA02F015FBDDE9042300F00304DDE9C4
:1024C0000201012C05D0022C07D05CB903F0D8F929
:1024D0000CE0009403F02CFE01E003F0D1F901F1CF
:1024E000004103E00124009403F022FE07B030BD58
:1024F000FB21E93FFFFFEF7F21F000417047000023
:102500002DE9F347C1F30A56A6F2FF358046132D95
:1025100089460F460C4603464FEAD17A45DC002D2A
:102520002BDA21F00041014371D029F07F417A0C70
:1025300021F4700141EA0003520459420B431B0B82
:1025400003F4002343EA0209334B424603EBCA0378
:10255000D3E900454B462046294605F041F92B4674
:102560002246CDE90001DDE9000105F037F921F04F
:102570000043804643EACA7949E0284A2A4111408B
:10258000014344D0520802EA090151EA000327D06E
:1025900029EA02044FF48022132D0CBF4FF00043B0
:1025A000002352FA05F52C431AE0332D07DDB5F56B
:1025B000806F2CD102460B4605F012F925E04FF052
:1025C000FF32A6F21346F240024220D052080242E5
:1025D00006D020EA02034FF0804252FA06F6334357
:1025E0001E460D4B2746324603EBCA03D3E900458E
:1025F0003B462046294605F0F3F822462B46CDE916
:102600000001DDE9000105F0E9F880468946404611
:102610004946BDE8FC8700BFB0A10108FFFF0F00DD
:102620001B4A21F0004330B5934287B004460D4663
:1026300004DC002300220093002317E0154A934294
:1026400004DD02460B4605F0C9F81EE002AA02F0BE
:1026500047FADDE9042300F00304DDE90201012C5F
:1026600007D0022C08D064B90124009403F060FD67
:102670000BE003F005F908E00124009403F058FD95
:1026800001E003F0FDF801F1004107B030BD00BFEB
:10269000FB21E93FFFFFEF7F134A21F0004330B5F4
:1026A000934287B004460D4604DC012300220093C8
:1026B000002314E00D4A934204DD02460B4605F068
:1026C0008DF80EE002AA02F00BFA00F00103DDE93A
:1026D00002015B00C3F101030093DDE9042303F071
:1026E000E7FD07B030BD00BFFB21E93FFFFFEF7FF3
:1026F0002DE9F04120F00045B5F1A14F0446074611
:102700000BDBB5F1FF4F03DD014605F053FDDFE0C4
:10271000002840F3DB80704CDBE0704B9D420CDC0A
:10272000B5F1445F57DA6E4905F044FD4FF07E5134
:1027300006F004F800284ED0CBE000F01FF9694BFA
:102740009D42044628DCA3F5D0039D4213DC0146DC
:10275000002605F02FFD4FF07E5105F029FD4FF0CA
:1027600080410546204605F025FD0146284605F036
:10277000DDFE044631E04FF07E51012605F018FDE4
:102780004FF07E510546204605F014FD01462846CF
:1027900005F0CCFE044620E0534B9D4214DC4FF084
:1027A0007F51022605F004FD4FF07F51054620467B
:1027B00005F008FE4FF07E5105F0FCFC014628466E
:1027C00005F0B4FE044608E02146484805F0AEFE98
:1027D0000326044601E04FF0FF362146204605F06F
:1027E000F1FD0146804605F0EDFD4149054605F045
:1027F000E9FD404905F0DEFC0146284605F0E2FD12
:102800003D4905F0D7FC0146284605F0DBFD3B4974
:1028100005F0D0FC0146284605F0D4FD384905F006
:10282000C9FC0146284605F0CDFD364905F0C2FC3D
:102830000146404605F0C6FD33498046284605F06E
:10284000C1FD324905F0B4FC0146284605F0BAFD49
:102850002F4905F0ADFC0146284605F0B3FD2D4992
:1028600005F0A6FC0146284605F0ACFD2A4905F016
:102870009FFC0146284605F0A5FD731C01460BD1BF
:10288000404605F097FC0146204605F09BFD0146B9
:10289000204605F08DFC1BE04046204D05F08AFCEB
:1028A0000146204605F08EFD05EB8603196905F00B
:1028B0007FFC214605F07CFC014655F8260005F01A
:1028C00077FC002F04DA00F1004402E0144C00E031
:1028D00004462046BDE8F081DB0FC93FFFFFDF3E25
:1028E000CAF24971FFFF973FFFFF1B40000080BF06
:1028F000D769853C59DA4B3D356B883D6E2EBA3D24
:102900002549123EABAAAA3E21A215BD6BF16E3D30
:1029100095879D3D388EE33DCDCC4C3EC0A101084E
:10292000DB0FC9BF07B520F00043134A01469342AD
:1029300001DC002111E0B3F1FF4F02DB05F038FCB0
:1029400019E0694602F0F8FD019900F003020098D1
:10295000012A05D0022A06D052B903F099FE0AE0F6
:1029600004F034FA01E003F093FE00F1004002E0CD
:10297000012204F02BFA0EBDD80F493F20F0004091
:102980007047000007B520F00043174A0146934204
:1029900002DC0021002212E0B3F1FF4F02DB05F060
:1029A00007FC20E0694602F0C7FD00F003000128A3
:1029B00008D002280BD080B900980122019904F0B8
:1029C00005FA10E00098019903F062FE0BE0009810
:1029D0000122019904F0FAF903E00098019903F04B
:1029E00057FE00F100400EBDD80F493F2DE9D043FE
:1029F0008AB006460F4600F0E3FB1F4C94F9003006
:102A000001338046894631D03046394604F0F8FC1F
:102A100000282BD030463946FFF76EFD0022174BB9
:102A200005F020FB10B301230093154B1548CDE9A9
:102A3000046701930023CDE90267089304F014FDB5
:102A400094F90030022BCDE9060103D0684604F06A
:102A500009FD18B905F0C2FE21230360089B1BB1D4
:102A600005F0BCFE089B0360DDE906894046494647
:102A70000AB0BDE8D08300BF000000200000F03F96
:102A800018A801083FA8010800F0EABD00000000F6
:102A90002DE9D0438AB006460F4600F0D1FE244C03
:102AA00094F9003001338046894637D030463946A4
:102AB00004F0A6FC002831D030463946FFF71CFD53
:102AC00019A3D3E9002305F0CDFA38B3032300930B
:102AD000184B2178CDE9046701930023CDE9026703
:102AE000089329B9144B4FF06042CDE9062305E065
:102AF000124B00220229CDE9062303D0684604F0D8
:102B0000B1FC18B905F06AFE22230360089B1BB1D3
:102B100005F064FE089B0360DDE9068940464946EE
:102B20000AB0BDE8D08300BF7DF8B98FCE338640B0
:102B3000000000201DA80108FFFFEF470000F07F04
:102B40002DE970438AB004460D4600F011FF324E65
:102B500096F900300133804689464FD020462946F9
:102B600004F0BEFB002849D02046294626A3D3E91D
:102B7000002305F077FAB8B103230093274B31788F
:102B8000CDE9044501930023CDE90245089329B915
:102B9000234B4FF06042CDE906231FE0214B00227A
:102BA0000229CDE9062318E02046294618A3D3E9D7
:102BB000002305F039FA08B304230093174B0022D1
:102BC000CDE90445CDE90245019300230893002394
:102BD000CDE9062396F90030022B03D0684604F0B5
:102BE00041FC18B905F0FAFD22230360089B1BB1D4
:102BF00005F0F4FD089B0360DDE90689404649467F
:102C00000AB0BDE8708300BFEF39FAFE422E86405D
:102C100051302DD5104987C00000002022A801089E
:102C2000FFFFEF470000F07F2DE9D0438AB08046D8
:102C3000894601F00DF82D4C94F900300133064619
:102C40000F464DD04046494604F0DAFB002847D0F5
:102C5000404649460022002305F004FA00283FD1EF
:102C6000234B2478CDE9028901930023CDE904891F
:102C700008931CB94FF060421E4B01E01E4B00222E
:102C8000CDE90623404649460022002364B205F000
:102C9000C1F960B1022300939C4203D0684604F05E
:102CA000E1FBA8B905F09AFD2223036010E001239F
:102CB000022C009303D0684604F0D4FB18B905F049
:102CC0008DFD212303600D4804F0CEFBCDE9060104
:102CD000089B1BB105F082FD089B0360DDE90667D8
:102CE000304639460AB0BDE8D08300BF000000205E
:102CF00026A80108FFFFEFC70000F0FF3FA801086A
:102D00002DE9F04F8BB01F4682468B46164601F0E8
:102D1000A3F9844C94F9003001338046894600F0D1
:102D200046813046394604F06BFB002800F03F81B5
:102D30005046594604F064FB0546E8B9304639462A
:102D40000022002305F066F9002800F030810123FD
:102D50000093754B00220895CDE902AB0193734BAC
:102D6000CDE90467CDE9062394F900305A1C00F040
:102D70001681022B7ED112E15046594600220023D3
:102D800005F048F9002840D030463946002200239B
:102D900005F040F9B0B101230093634B0022CDE967
:102DA00002ABCDE904670193002308930023CDE92A
:102DB000062394F90030002B5CD05C4B0022CDE957
:102DC0000623ECE03046394604F08AFA002800F089
:102DD000EE80304639460022002305F025F9002810
:102DE00000F0E580012300934F4B00222178CDE9CC
:102DF00002AB01930023CDE90467089300292BD08F
:102E00004B4B0229CDE9062333E04046494604F006
:102E100067FA0546002840F095805046594604F070
:102E20005FFA002800F08E803046394604F058FAE8
:102E3000002800F087804046494604F0E1FA3A4B0A
:102E400010BB2478012208908DE80C00CDE902AB7C
:102E5000CDE9046724B900220023CDE9062309E067
:102E60000020002102460B4604F096FF022CCDE91B
:102E7000060105D0684604F0F5FA002840F08F807E
:102E800005F0ACFC212389E003228DE80C0094F9C5
:102E900000300895CDE902ABCDE9046703BB254BB3
:102EA0004FF0604250465946CDE9062300220023E8
:102EB00005F0BAF8002865D000221F4B304639468D
:102EC00004F040FE04460D46FFF71AFB22462B464F
:102ED00005F0A0F8002855D14FF06042174B1DE0D7
:102EE000174B002250465946CDE906230022002305
:102EF00005F09AF8002845D000220F4B304639469D
:102F000004F020FE04460D46FFF7FAFA22462B464F
:102F100005F080F8002835D1054B0022CDE90623C5
:102F200030E000BF000000202AA801080000F03FA8
:102F30000000F0FFFFFFEF470000E03FFFFFEFC79B
:102F40000000F07F002400254046494622462B46DB
:102F500005F060F800282AD05046594604F0C0F920
:102F600028B33046394604F0BBF900B3042300937C
:102F7000114BCDE902ABCDE9046701930023CDE904
:102F8000064508930D4B93F90030022B03D0684699
:102F900004F068FA18B905F021FC22230360089BAD
:102FA0001BB105F01BFC089B0360DDE90689404668
:102FB00049460BB0BDE8F08F2AA8010800000020A8
:102FC0002DE9F0438BB004460D4601F06DFF264E0F
:102FD00096F900300133804689463FD004F080F9ED
:102FE000074600283AD12046294604F079F90028FE
:102FF00034D0032300931D4B20463678294608978A
:10300000002201930023CDE90445CDE9024556B9DC
:1030100005F028F84FF0604208B1154B00E0154B61
:10302000CDE906230AE005F01DF8002208B1124B95
:1030300000E0124B022ECDE9062303D0684604F0CF
:1030400011FA18B905F0CAFB22230360089B1BB1D3
:1030500005F0C4FB089B0360DDE90689404649464C
:103060000BB0BDE8F08300BF000000202EA80108CF
:10307000FFFFEF47FFFFEFC70000F07F0000F0FF0A
:103080002DE9D04F8AB006460F4601F0C1FF234C10
:1030900094F90030013382468B463AD030463946A7
:1030A00004F0AEF9002834D04FF000084FF00009CA
:1030B0003046394642464B4604F0B6FF002828D039
:1030C00001230093164B2478CDE904670193002374
:1030D000CDE90267089314B9CDE9068909E04046B5
:1030E000494642464B4604F057FE022CCDE9060104
:1030F00003D0684604F0B6F918B905F06FFB212338
:103100000360089B1BB105F069FB089B0360DDE9C8
:1031100006AB504659460AB0BDE8D08F00000020EB
:1031200033A8010870B58AB0044602F01FF81F4E9C
:1031300096F900300133054635D0204604F050FAA8
:10314000002830D02046FFF719FC4FF07E5105F0E3
:10315000F5FA40B301230093154B20460193002359
:10316000089304F09BFCCDE90401CDE9020111486C
:1031700004F07AF996F90030022BCDE9060103D06C
:10318000684604F06FF918B905F028FB21230360A5
:10319000089B1BB105F022FB089B0360DDE90601DB
:1031A00004F0B2FF054628460AB070BD00000020BA
:1031B00038A801083FA8010802F02EB9000000005D
:1031C0007D4B2DE9F04F21F0004687B09E4204462A
:1031D0000D46019122DD06F14046034606F58016B4
:1031E000334312D15AA3D3E9002304F0ABFC5AA312
:1031F000D3E9002306460F462046294604F0A2FCE8
:1032000002460B46304639469CE022462B4604F0E7
:10321000E5FA02460B4604F0BFFD95E0674B9E427F
:1032200000F3D080B6F1795F0CDA4DA3D3E9002327
:1032300004F0D6FA0022624B04F014FF002800F0DC
:10324000C180CAE122462B4604F07CFC46A3D3E9A8
:10325000002306460F4604F075FC45A3D3E900237E
:1032600004F0BEFA02460B463046394604F06AFCCA
:1032700041A3D3E9002304F0B1FA02460B463046DD
:10328000394604F05FFC3EA3D3E9002304F0A8FA1A
:1032900002460B463046394604F054FC3AA3D3E9C3
:1032A000002304F09BFA02460B463046394604F0F0
:1032B00049FC37A3D3E9002304F092FA02460B46F7
:1032C0003046394604F03EFC33A3D3E90023804660
:1032D00089463046394604F035FC31A3D3E9002352
:1032E00004F07CFA02460B463046394604F02AFCCC
:1032F0002DA3D3E9002304F073FA02460B463046AF
:10330000394604F01FFC2AA3D3E9002304F066FA2F
:1033100002460B463046394604F014FC0022284B86
:1033200004F05EFA02460B464046494604F034FD7E
:1033300002460B462046294604F004FC02460B4692
:103340002046294604F04CFA04460D4645E100BFEC
:10335000182D4454FB21F93F075C143326A6913CF9
:103360009C7500883CE4377E09F7FD0DE13D023F86
:1033700088B20175E0EF493F3B8F68B52882A43FD2
:103380005544880E55C1C93F7D6FEB0312D6D43F1B
:10339000555555555555C53F82922EB1C5B8B33FC9
:1033A00059018D1B6C06E63FC88A599CE52A0040EE
:1033B0004B2D8A1C273A0340FFFFEF3FFFFFDF3F03
:1033C0000000F03F20462946FFF796F802460B46DC
:1033D00000209F4904F002FA00229E4B04F0B2FB49
:1033E00081A3D3E9002304460D4604F0ABFB80A380
:1033F000D3E9002304F0F4F902460B46204629469F
:1034000004F0A0FB7CA3D3E9002304F0E7F9024613
:103410000B462046294604F095FB79A3D3E9002307
:1034200004F0DEF902460B462046294604F08AFBEA
:1034300075A3D3E9002304F0D1F902460B462046D8
:10344000294604F07FFB72A3D3E9002304F0C8F9F6
:1034500002460B462046294604F074FB6EA3D3E9CE
:103460000023CDE902012046294604F06BFB6CA342
:10347000D3E9002304F0B2F902460B462046294660
:1034800004F060FB68A3D3E9002304F0A9F9024625
:103490000B462046294604F055FB65A3D3E90023DB
:1034A00004F09CF902460B462046294604F04AFBEC
:1034B0000022674B04F094F982468B462046294649
:1034C00001F0A6FD644B9E428046894620DD5246AF
:1034D0005B46DDE9020104F05FFC02460B46404614
:1034E000494604F02FFB02460B464046494604F08D
:1034F00077F902460B4604F073F94FA3D3E9002392
:1035000004F06CF902460B464DA1D1E900015BE0E5
:1035100000220B46164602460F4604F061F9524659
:103520005B46CDE90401DDE9020104F035FC024609
:103530000B46DDE9040104F005FB32464B468246AA
:103540008B463046494604F0FDFA02460B462046BB
:10355000294604F043F932464B4604460D464046A0
:10356000494604F03DF902460B462046294604F040
:1035700013FC02460B4604F033F902460B462EA11B
:10358000D1E9000104F02AF902460B46504659469B
:1035900004F024F932463B4604460D46304649467F
:1035A00004F01EF902460B4627A1D1E9000104F000
:1035B00015F902460B462046294604F00FF902464B
:1035C0000B4621A1D1E9000104F008F9019B002B71
:1035D0000D460446D8BF01F100452046294607B0F4
:1035E000BDE8F08FAFF3008009F7FD0DE13D023F2C
:1035F00088B20175E0EF493F3B8F68B52882A43F50
:103600005544880E55C1C93F7D6FEB0312D6D43F98
:10361000555555555555C53F82922EB1C5B8B33F46
:1036200059018D1B6C06E63FC88A599CE52A00406B
:103630004B2D8A1C273A0340075C143326A6913C85
:10364000182D4454FB21F93F182D4454FB21E93F28
:103650000000F03F0000E03F3233EF3FAFF3008067
:103660002DE9FF479046CDE9022323F000470246AB
:1036700099460B46CDE90023C8F100036E4E43EA9C
:10368000080304460D46019A47EAD373DDF800A00B
:10369000B3420AD822F000439446CAF1000242EA3B
:1036A0000A0243EAD272B24206D920462946DDE92F
:1036B000022304F095F894E009F1404202F58012EB
:1036C00052EA080204D104B0BDE8F047FEF73CBD61
:1036D0004FEAA97653EA0A0A06F0020646EADC76C1
:1036E00005D1032E03D8DFE806F07E7E252957EAB0
:1036F000080829D0504A974224D1BB4211D1032E49
:1037000022D8DFE806F00262060A39A5D5E90045AD
:1037100069E039A5D5E9004565E039A5D5E9004559
:1037200061E0032E0ED8DFE806F0025405090024FC
:10373000002558E034A5D5E9004554E034A5D5E985
:10374000004550E0934206D1BCF1000F45DA32A5A6
:10375000D5E9004547E0DB1B1B153C2B0FDCB9F11D
:10376000000F01DA3C330EDBDDE902232046294657
:1037700004F012FBFEF7C0FEFEF7E6FC05E028A110
:10378000D1E9000101E000200021012E03D0022E2A
:1037900005D036B30EE0044601F1004523E022A334
:1037A000D3E9002304F01AF802460B4616A1D1E92A
:1037B000000107E01CA3D3E9002304F00FF812A3D3
:1037C000D3E9002304F00AF80BE019A5D5E9004578
:1037D00009E000244FF0004505E011A5D5E90045BA
:1037E00001E004460D462046294604B0BDE8F087B6
:1037F000182D4454FB21E93FD221337F7CD902406C
:10380000D221337F7CD902C0182D4454FB210940BA
:10381000182D4454FB2109C0182D4454FB21F9BF35
:10382000182D4454FB21F93F075C143326A6A13C14
:10383000182D4454FB21E9BF0000F07FAFF3008056
:103840002DE9F84321F00044414B06460F469C42C7
:1038500002DD02460B466FE03E4B9C4225DCFEF744
:103860004BFE03F02DFB00223B4B8046894603F0C4
:10387000B7FFB4F1725F06460F4661DB42464B4626
:103880004046494604F05EF932463B4604460D4642
:103890003046394603F0A4FF02460B46204629462F
:1038A00004F07AFA00222C4B18E02C4B9C4218DCD6
:1038B000FEF722FE00F05CF80022294B04460D467C
:1038C00004F040F922462B4606460F4600202449C4
:1038D00004F062FA02460B463046394603F080FF98
:1038E0002CE0204B9C4206DCFEF706FE00F040F880
:1038F00000221B4B20E01C4B9C4205DD01339C4207
:1039000015D11A4B984212D830463946FEF7F4FDCD
:103910000022134B04F016F900F02AF80022104B95
:1039200004460D4604F00EF922462B4604E006A19B
:10393000D1E9000102460B4604F004F906460F46A1
:1039400030463946BDE8F8839C7500883CE4377EF4
:10395000FFFFEF7F422ED63F0000F03FFFFF3540D4
:103960000000E03F412E8640CD3386407DF8B98F80
:103970002DE9F74F21F00043A94ACC0F06460F4628
:1039800093420D4623D9A74A93420BD921F07F4594
:10399000024625F470050B46054375D1002C00F056
:1039A0004F814BE188A3D3E9002304F05BFB28B1EE
:1039B00087A1D1E9000102460B46FDE030463946B9
:1039C00085A3D3E9002304F02FFBC0B136E1964A6A
:1039D000934248D9954A934211D8954DC4F10008B5
:1039E00005EBC405C4EB080404F10108D5E9002384
:1039F00003F0F4FED5E904ABCDE900012AE078A399
:103A0000D3E900233046394604F09CF8884B03EB99
:103A1000C404D4E9082303F0E3FE04F02DFB804640
:103A200004F02AF870A3D3E9002304460D4604F0FD
:103A300089F802460B463046394603F0CFFE6CA3A8
:103A4000D3E90023CDE900012046294604F07AF8A5
:103A500082468B46DDE9000152465B4603F0BEFE1E
:103A600006460F4615E0734A934210D858A3D3E98F
:103A7000002303F0B5FE00226F4B04F0F3FA40B1CF
:103A80006D4B30463946002203F0AAFE96E04FF017
:103A9000000832463B463046394604F053F856A3F8
:103AA000D3E9002304460D4604F04CF854A3D3E9AF
:103AB000002303F093FE02460B462046294604F0FD
:103AC00041F851A3D3E9002303F08AFE02460B46D6
:103AD0002046294604F036F84DA3D3E9002303F02D
:103AE0007DFE02460B462046294604F02BF84AA3E9
:103AF000D3E9002303F074FE02460B462046294614
:103B000004F020F802460B463046394603F066FEC4
:103B100004460D463046394622462B46B8F1000F82
:103B20001BD104F00FF800224FF0804380468946F5
:103B30002046294603F052FE02460B4640464946BF
:103B400004F02AF932463B4603F048FE02460B4693
:103B50000020394903F042FE30E003F0F3FF224633
:103B60002B4606460F4600204FF0804103F036FEFC
:103B700002460B463046394604F00EF902460B4623
:103B80005046594603F02AFEDDE9002303F026FEE5
:103B90000B4602462849002003F020FE6FF47F7395
:103BA000984502DB01EB085108E008F57A7800221D
:103BB0004FF0B87301EB085103F0C4FF06460F46FF
:103BC0003EE000BFAFF30080EF39FAFE422E8640A0
:103BD0009C7500883CE4377E51302DD5104987C054
:103BE000FE822B654715F73F0000E0FE422EE63FC0
:103BF000763C7935EF39EA3DD0A4BE726937663E2E
:103C0000F16BD2C541BDBB3E2CDE25AF6A56113FDC
:103C100093BDBE166CC1663F3E5555555555C53FC3
:103C2000412E8640FFFFEF7F422ED63FB1A2F03FEC
:103C3000E0A10108FFFF2F3E0000F03F0026002713
:103C40003046394603B0BDE8F08F00BFAFF30080C7
:103C5000B1F5801F02462DE9F04F0B4687B00446B0
:103C60000D460E4619DA21F00045054302D1002029
:103C7000594903E0002906DA03F0B0FD00220023D1
:103C800004F08AF8BCE10022544B03F05BFF0B46C2
:103C90000D4602466FF0350100E000215048854294
:103CA00002DD1046194641E02C1525F07F4525F42C
:103CB0007005A4F2FF340C1905F5152101F66471A5
:103CC00001F4801181F07F5080F4401004EB115416
:103CD00040EA0503104619460022424B03F07EFDE0
:103CE000AB1C23F470030022022B82468B467DDC42
:103CF000002304F08FF9E0B1002C00F07F81204612
:103D000003F0BAFE2EA3D3E9002304460D4603F0C8
:103D100019FF2DA3D3E9002306460F462046294666
:103D200003F010FF02460B463046394603F058FDBB
:103D300066E152465B465046594603F003FF24A312
:103D4000D3E9002306460F465046594603F0FAFED3
:103D500002460B460020244903F040FD02460B4674
:103D60003046394603F0EEFE06460F4624B950466B
:103D7000594632463B463EE1204603F07DFE10A305
:103D8000D3E9002304460D4603F0DCFE0EA3D3E97D
:103D90000023804689462046294603F0D3FE02468A
:103DA0000B463046394603F019FD52465B4603F098
:103DB00015FD02460B46404649461CE1AFF3008024
:103DC0000000E0FE422EE63F763C7935EF39EA3DD1
:103DD000555555555555D53F000050C3000050432B
:103DE000FFFFEF7F0000F03F0000E03F4FF0804317
:103DF000A5F5C22603F0F4FCC5F5D7255135A6F28A
:103E00007A46354302460B465046594603F0C4FFF6
:103E1000CDE90001204603F02FFECDE90401DDE9E4
:103E2000000102460B4603F08DFE02460B46CDE92B
:103E3000020103F087FE74A3D3E90023804689467C
:103E400003F080FE72A3D3E9002303F0C9FC02460D
:103E50000B464046494603F075FE6FA3D3E90023A5
:103E600003F0BEFC02460B464046494603F06AFE9C
:103E70006BA3D3E9002303F0B3FC02460B46DDE954
:103E8000020103F05FFE68A3D3E90023CDE902013C
:103E90004046494603F056FE65A3D3E9002303F0EC
:103EA0009FFC02460B464046494603F04BFE62A388
:103EB000D3E9002303F094FC02460B4640464946F2
:103EC00003F040FE02460B46DDE9020103F088FCE8
:103ED000002D8046894650DD00225D4B50465946F4
:103EE00003F030FE52465B4603F02CFE06460F46BA
:103EF00084B942464B4603F073FC02460B46DDE9AB
:103F0000000103F01FFE02460B463046394603F01F
:103F100065FC3FE04AA3D3E90023DDE9040103F097
:103F200011FE42464B46CDE902013046394603F0C8
:103F300057FC02460B46DDE9000103F003FE42A3F5
:103F4000D3E9002304460D46DDE9040103F0FAFD40
:103F500002460B462046294603F042FC02460B4629
:103F60003046394603F03AFC52465B4603F036FCD5
:103F700002460B46DDE902013DE084B942464B466C
:103F80005046594603F02AFC02460B46DDE9000183
:103F900003F0D8FD02460B46504659462BE028A3B5
:103FA000D3E90023DDE9040103F0CCFD42464B4692
:103FB00006460F465046594603F010FC02460B4693
:103FC000DDE9000103F0BEFD1FA3D3E90023044691
:103FD0000D46DDE9040103F0B5FD02460B4620461F
:103FE000294603F0FBFB52465B4603F0F7FB024613
:103FF0000B463046394603F0F1FB01E0002000217A
:1040000007B0BDE8F08F00BF44523EDF12F1C23F5F
:10401000DE03CB966446C73F599322942449D23F8E
:10402000935555555555E53F9FC678D0099AC33FDE
:10403000AF788E1DC571CC3F04FA97999999D93FF5
:104040000000E0FE422EE63F763C7935EF39EA3D4E
:104050000000E03FAFF300809C462DE9F04F93460F
:104060002CF0004691B056EA0B0382468946069131
:1040700080465A46654600F0F6847F4B21F00044A6
:1040800002919C4205DC00D118B99E4201DC0ED1A0
:104090006AB104F1404404F5801B5BEA080B00F0B0
:1040A000E584764811B0BDE8F04F03F0DDB9029920
:1040B00000292DDA724B9E4228DCA3F154739E42F4
:1040C00026DD331540F213418B420DDDC3F58663C7
:1040D000033332FA03F111FA03F393421BD101F0D7
:1040E0000101C1F1020117E0002A50D1C3F582633A
:1040F000033356FA03F111FA03F3B34240F0C984D3
:1041000001F00101C1F10201049122E0022103E06A
:104110000023049301E000210491002A39D1564B79
:104120009E4216D104F1404303F5801353EA08037D
:1041300000F09B84534B9C4204DD002D80F2A4844C
:1041400000F097BC002D80F294840CF1004C00F03C
:104150009BBC4D4B9E4207D1002D80F28C840020E9
:10416000494952464B465DE0B5F1804F02D1504679
:10417000494677E0454B9D420BD1029A002A08DB65
:104180005046494611B0BDE8F04F00F041BF002352
:10419000049350464946CDF804C0FEF7ADF9DDF86A
:1041A00004C002460F46B8F1000F2CD1324B9C429E
:1041B00004D01CB103F140439C4224D1002D08DA05
:1041C0003B4600203049904603F0E6FDB9460246E2
:1041D0000F460299002980F2518404F14044049B67
:1041E00004F58014234305D11046394614463D4654
:1041F0003B4613E004999346012940F0408407F1BF
:10420000004C00F041BC0699CB0F0499013B0D9383
:1042100019430BD15046494652464B4603F0DEFA4D
:1042200002460B4603F0B8FD00F01ABC184B9E4244
:1042300040F3928003F104739E4203DD114B9C42D4
:104240000ADC02E0134B9C4203DC002D80F219844F
:1042500005E00D4B9C421FDD002D40F3128404A1AC
:10426000D1E9000102460B46F8E300BFAFF300803E
:104270009C7500883CE4377E0000F07F3FA8010871
:10428000FFFF3F43FFFFEF3F0000F03F0000E03F34
:104290000000E041FEFFEF3F1046394600224C4B44
:1042A000CDF804C003F09AFA41A3D3E900230446F1
:1042B0000D4603F047FC40A3D3E9002306460F4612
:1042C0002046294603F03EFC22462B46CDE902015A
:1042D0002046294603F036FC00223E4B80468946A4
:1042E0002046294603F02EFC02460B4634A1D1E9B4
:1042F000000103F073FA02460B462046294603F0FC
:1043000021FC02460B460020334903F067FA0246BF
:104310000B464046494603F015FC2BA3D3E9002386
:1043200003F010FC02460B46DDE9020103F056FAE9
:1043300004460D4622462B463046394603F050FAD5
:10434000002032463B46CDE9020103F047FA02461F
:104350000B4620462946DAE1B4F5801F0EDA1046F6
:104360001E4B00223946CDF804C003F0EBFB6FF082
:104370003403DDF804C002460C4600E0002321159A
:1043800024F07F44A1F2FF3124F470045918144B37
:1043900044F07F550C919C4245F4401506DD114BCD
:1043A0009C4221DDA5F5801501310C9100241CE013
:1043B000000000604715F73F44DF5DF80BAE543E48
:1043C000555555555555D53FFE822B654715F73F39
:1043D0000000F03F0000D03F0000E03F00004043FD
:1043E0008E98030079B60B000124A34B904610462B
:1043F000294603EBC40ACDF804C0A946DAE90067F0
:1044000032463B4603F0EAF932463B46CDE90A0123
:104410004046294603F0E4F902460B46002097493E
:1044200003F0BAFCCDE90E01DDE90E23DDE90A0156
:1044300003F088FB02460B46CDE9062300230693D2
:10444000DDE90623CDE908010020CDE902236B1048
:1044500043F0005303F5002303EB844104460D466B
:1044600022462B46DDE9020103F06CFB02460B46B7
:10447000DDE90A0103F0B2F932463B46CDE90A0113
:104480002046294603F0AAF902460B464046494613
:1044900003F0A4F902460B46DDE9020103F052FBEA
:1044A00002460B46DDE90A0103F098F902460B4685
:1044B000DDE90E0103F046FB80468946DDE908018F
:1044C00002460B4603F03EFB02460B4604460D46F1
:1044D00003F038FB58A3D3E9002306460F462046D5
:1044E000294603F02FFB56A3D3E9002303F078F904
:1044F00002460B462046294603F024FB52A3D3E98B
:10450000002303F06DF902460B462046294603F0CE
:1045100019FB4FA3D3E9002303F062F902460B46CF
:104520002046294603F00EFB4BA3D3E9002303F0FA
:1045300057F902460B462046294603F003FB48A3E1
:10454000D3E9002303F04CF902460B4630463946C6
:1045500003F0F8FADDE9082304460D46DDE902011F
:1045600003F03EF902460B464046494603F0EAFA9C
:1045700002460B462046294603F032F906460F460E
:10458000DDE9020102460B4603F0DCFA00223C4B57
:10459000CDE90A0103F024F932463B4603F020F945
:1045A000069B1C461A460D46DDE902012B4603F028
:1045B000C9FA22462B46CDE902014046494603F09E
:1045C000C1FA00222E4B804689462046294603F038
:1045D00005F9DDE90A2303F001F902460B463046EE
:1045E000394603F0FBF8DDE9082303F0ABFA024695
:1045F0000B464046494603F0F3F806460F4632465E
:104600003B46DDE9020103F0EBF8069A144610463A
:1046100015A3D3E900230D4603F094FA14A3D3E9BC
:104620000023CDE908012046294603F08BFADDE995
:104630000223804626E000BFEF4E454A287ECA3F4F
:1046400065DBC9934A86CD3F01411DA96074D13F06
:104650004D268F515555D53FFFAB6FDBB66DDB3F18
:10466000033333333333E33F000000E009C7EE3F49
:10467000F5015B14E02F3EBE10A201080000F03FE0
:104680000000084089462046294603F0A7F8024664
:104690000B463046394603F0A1F87BA3D3E900234B
:1046A00003F050FA02460B464046494603F098F89C
:1046B000DAE9042303F094F880460C98894603F065
:1046C000DBF9DAE9086742464B4604460D46DDE968
:1046D000080103F085F832463B4603F081F8224694
:1046E0002B4603F07DF8069B224618462B46CDE963
:1046F000020103F073F832463B4603F06FF8DDE940
:10470000082303F06BF802460B464046494603F087
:1047100065F8049A0D9BDDF804C06546CDF804C029
:104720000F46511E00220B430646614608BF5E4BF2
:10473000584618BF5D4BCDE904236346002214465A
:1047400003F04CF8DDE9022303F0FCF9DDF804C0C6
:1047500032463B46804689465846614603F0F2F9A8
:1047600002460B464046494603F03AF8DDE902238B
:10477000CDE906012046294603F0E4F982468B463E
:104780005B46DDE906015246CDE902AB03F028F8AD
:10479000474B9942804689460C460E46054626DD23
:1047A00001F13F4404F5E004044315D138A3D3E9F3
:1047B0000023DDE9060103F013F852465B46044688
:1047C0000D464046494603F009F802460B4620468E
:1047D000294603F047FC48B32FA3D3E90023DDE9C2
:1047E000040103F0AFF92CA3D3E9002336E1314BE8
:1047F00021F000429A4219DD2F4BCB1803430AD116
:1048000052465B4602F0EAFF02460B46DDE906012E
:1048100003F014FC50B122A3D3E90023DDE9040125
:1048200003F090F91EA3D3E9002317E1234A26F0F1
:104830000043934246DD1B154FF48012A3F2FE3372
:104840001F4852FA03F30024F318C3F30A5223F06B
:104850007F47A2F2FF3127F4700750FA01F147F4C5
:104860008017C2F5826223EA0105033250461741E0
:104870005946002E22462B46B8BF7F4202F0AEFFBB
:10488000CDE902011FE000BFFD033ADC09C7EE3F9E
:10489000FE822B654715973C9C7500883CE4377E6B
:1048A00059F3F8C21F6EA5010000F0BF0000F03FF1
:1048B000FFFF8F40FFCB904000346F3F0000E03F90
:1048C000FFFF0F000027DDE90223DDE9060102F00A
:1048D00087FF002070A3D3E9002304460D4603F0B0
:1048E00031F9DDE9022382468B462046294602F053
:1048F00075FF02460B46DDE9060102F06FFF68A373
:10490000D3E9002303F01EF967A3D3E9002380460F
:1049100089462046294603F015F902460B464046D3
:10492000494602F05DFF04460D4622462B4650469E
:10493000594602F055FF52465B468046894602F0D2
:104940004DFF02460B462046294602F047FF4246ED
:104950004B46CDE902014046494603F0F3F854A323
:10496000D3E9002304460D4603F0ECF852A3D3E943
:10497000002302F033FF02460B462046294603F08F
:10498000E1F84FA3D3E9002302F02AFF02460B46C9
:104990002046294603F0D6F84BA3D3E9002302F0C2
:1049A0001DFF02460B462046294603F0CBF848A3DC
:1049B000D3E9002302F014FF02460B4620462946A5
:1049C00003F0C0F802460B464046494602F006FF97
:1049D00004460D4622462B464046494603F0B2F8AF
:1049E00000224FF0804382468B462046294602F043
:1049F000F5FE02460B465046594603F0CDF9DDE977
:104A0000022304460D464046494603F09BF8024601
:104A10000B46DDE9020102F0E3FE02460B462046AA
:104A2000294602F0DBFE42464B4602F0D7FE0B461B
:104A300002462949002002F0D1FE01EB075304464B
:104A4000B3F5801F0D4605DA3A4602F015FD024621
:104A50000B4601E01D460246DDE9040103F072F851
:104A600083468C4610E09B4600E09346DFF868C022
:104A70000AE0934607E0D346CC4605E09346BC46A1
:104A800002E04FF0000BDC465846614611B0BDE82D
:104A9000F08F0492FFF75DBB00000000432EE63F5D
:104AA000EF39FAFE422EE63F396CA80C615C20BE5D
:104AB000D0A4BE726937663EF16BD2C541BDBB3E24
:104AC0002CDE25AF6A56113F93BDBE166CC1663F02
:104AD0003E5555555555C53F0000F03FAFF300809A
:104AE000A94B2DE9F04F21F000468FB09E42804641
:104AF00089461546079106DCC2E900890023002299
:104B0000C5E9022374E1A14B9E426FDC079BA04CD8
:104B1000002B8FA3D3E9002333DD02F05FFEA64212
:104B20008046894610D08CA3D3E9002302F056FEBC
:104B300002460B464046C5E90023494602F04EFEB8
:104B400085A3D3E9002316E085A3D3E9002302F06F
:104B500045FE85A3D3E9002306460F4602F03EFE3C
:104B600002460B463046C5E90023394602F036FEC0
:104B70007DA3D3E9002302F031FE0124C5E902013F
:104B800086E102F02DFEA6428046894610D072A32F
:104B9000D3E9002302F024FE02460B464046C5E955
:104BA0000023494602F01AFE6BA3D3E9002316E066
:104BB0006BA3D3E9002302F013FE6BA3D3E9002318
:104BC00006460F4602F00CFE02460B463046C5E98B
:104BD0000023394602F002FE63A3D3E9002302F06A
:104BE000FFFD4FF0FF34C5E9020151E1694B9E42E0
:104BF00000F3F380FDF780FC5DA3D3E9002380463A
:104C0000894602F09FFF0022634B02F0E9FD03F0AA
:104C100033FA044602F030FF4DA3D3E90023CDE977
:104C2000020102F08FFF02460B464046494602F061
:104C3000D5FD49A3D3E9002380468946DDE9020179
:104C400002F080FF1F2C82468B464046494605DC19
:104C5000524B621E53F822309E426FD15B46524641
:104C600002F0BCFD3615C1F30A53C5E90001F31A81
:104C7000102B40F397803AA3D3E90023DDE902012A
:104C800002F060FF82468B4652465B4640464946EC
:104C900002F0A4FDCDE904014046DDE904234946C4
:104CA00002F09CFD52465B4602F098FD2EA3D3E92C
:104CB000002380468946DDE9020102F043FF4246B7
:104CC0004B4602F08BFD82468B465B46DDE90401D4
:104CD000524602F083FDC1F30A53C5E90001F61AFA
:104CE000312E5DDD24A3D3E90023DDE9020102F0CA
:104CF00029FF06460F4632463B46DDE9040102F035
:104D00006DFD8046894642464B46DDE9040102F0CE
:104D100065FD32463B4602F061FD19A3D3E900234D
:104D200006460F46DDE9020102F00CFF32463B4623
:104D300002F054FD82468B464046494652465B4649
:104D400002F04CFDC5E900012CE000BFAFF300808C
:104D500000004054FB21F93F3163621A61B4D03D39
:104D60000000601A61B4D03D7370032E8A19A33B12
:104D700083C8C96D305FE43F0000002E8A19A33B51
:104D8000C14920259A837B39FB21E93F7BD9024029
:104D9000FB21F93FFB2139410000E03F40A201081F
:104DA000DDE9048995E8C0004046494632463B4665
:104DB00002F014FD52465B4602F010FD0B4602461F
:104DC000C5E90223079B002B62DA07F1004701F1D6
:104DD00000416F60A860E96059E02F4B9E4209DDF9
:104DE00002460B4602F0FAFCC5E90201C5E90001E2
:104DF00000244DE03415A4F216442105731A194617
:104E00001F4603F039F902F037FE02460B464046D2
:104E10003946CDE9082302F0E1FC00221F4B02F0E5
:104E200091FE0F46064603F027F902F025FE0246E2
:104E30000B4630463946CDE90A2302F0CFFC00226A
:104E4000164B02F07FFE0EAF0326CDE90C0100E009
:104E5000013E77E902010022002303F0DBF800287D
:104E6000F6D1022300930E4B224608A8294601934F
:104E7000334600F0F1FD079B002B044608DA6B680F
:104E800003F100436B60EB6803F10043EB606442A5
:104E900020460FB0BDE8F08FFFFFEF7F00007041AC
:104EA000C0A20108AFF300804F4A2DE9F84F21F06E
:104EB0000046964204460D4604DD02460B4602F0CB
:104EC0008FFC86E00029494B4FF00008ACBFDFF8AB
:104ED0003891DFF838919E424EDC454B9E420ADC09
:104EE0003FA3D3E9002302F07BFC0022414B03F0F7
:104EF000B9F800286FD120462946FDF7FDFA01F0E8
:104F0000DFFF3D4B9E4204460D4620DC02460B4629
:104F100002F066FC22462B4682468B4620462946F6
:104F200002F010FE0022334B06460F46204629466B
:104F300002F056FC02460B463046394602F02CFF82
:104F400002460B465046594602F048FC0FE000224C
:104F5000284B02F045FC02460B462046294602F04B
:104F60001BFF02460B462046294602F039FC02464A
:104F70000B46404649462AE0204B9E4204DCFDF7A2
:104F8000BBFAFEF7F5FCF2E71D4B9E4205DD01334F
:104F90009E4217D11B4B984214D820462946FDF754
:104FA000ABFA0022184B02F0CDFDFEF7E1FC0446FF
:104FB0000D4622462B464046494602F0C3FD224696
:104FC0002B4604E006A3D3E900232046294602F03D
:104FD000B9FD04460D4620462946BDE8F88F00BFBE
:104FE0003374AC3C1F7BAC7FFFFFEF7FFFFF35408E
:104FF000FFFF2F3E0000F03FFFFFEF3F412E8640B6
:10500000CD3386407DF8B98F0000E03F0000E0BF5F
:105010002DE9F8430246544E0446534F0D460E40C8
:105020000B46BE420AD102460B4602F08BFD0246F9
:105030000B462046294602F0D3FB0FE0002910DC86
:1050400021F00046064300F08A8051B102460B462B
:1050500002F0C4FB02460B4602F09EFE04460D46DB
:105060007DE01E1514D102E0D30A153E5205002B37
:10507000FAD0002101E05B000131DD02FBD5C1F176
:1050800001003618C1F1200032FA00F08A400343D3
:10509000A6F2FF3623F07F43F40723F4700343F4B2
:1050A000801303D5D10F520001EB4303D10F00242D
:1050B00001EB430376105200162120464FF40015F1
:1050C00047199F4202DC7819DB1B6419D70F6D0862
:1050D0005200013907EB4303F2D14FF0200C884610
:1050E0004FF00045984208EB050702DB18D19742C4
:1050F00015D807F0004907EB0508B9F1004F05D1B5
:10510000B8F1000F02DB00F1010900E081461B1A33
:10511000BA4238BF013BD21B4919484600E003465A
:10512000D70F6D085200BCF1010C07EB4303D9D136
:10513000134307D0481C02D10134614602E001F05C
:10514000010359186310490803F17F53E20703F57F
:10515000001348BF41F0004103EB06550C462046C2
:105160002946BDE8F88300BF0000F07F2DE9F04735
:1051700020F00045B5F17E5F044607460AD1964906
:1051800003F020F995490546204603F01BF9014636
:10519000284669E006DD014603F00AF8014603F0FF
:1051A000C5F915E1B5F17C5F61DAB5F1485F09DA5F
:1051B0008B4902F0FFFF4FF07E5103F0BFFA002849
:1051C00055D006E1014603F0FDF88649054603F097
:1051D000F9F8854902F0EEFF0146284603F0F2F89F
:1051E000824902F0E5FF0146284603F0EBF88049CA
:1051F00002F0E0FF0146284603F0E4F87D4902F0A2
:10520000D7FF0146284603F0DDF87B4902F0D2FFC4
:105210000146284603F0D6F878490646284603F0AA
:10522000D1F8774902F0C4FF0146284603F0CAF8D6
:10523000744902F0BFFF0146284603F0C3F87249E3
:1052400002F0B6FF0146284603F0BCF84FF07E514D
:1052500002F0B0FF0146304603F068F901462046EF
:1052600003F0B0F80146204602F0A4FFB0E020466B
:10527000FDF784FB01464FF07E5002F099FF4FF09E
:105280007C5103F09FF85749044603F09BF85649B8
:1052900002F090FF0146204603F094F8534902F0D3
:1052A00087FF0146204603F08DF8514902F082FF46
:1052B0000146204603F086F84E4902F079FF014688
:1052C000204603F07FF84C4902F074FF0146204667
:1052D00003F078F849498146204603F073F84849BD
:1052E00002F066FF0146204603F06CF8454902F0E3
:1052F00061FF0146204603F065F8434902F058FF7C
:105300000146204603F05EF84FF07E5102F052FF56
:105310008046204600F064FA3C4B9D42064614DD70
:105320004146484603F002F90146304603F04AF888
:105330000146304602F03EFF014602F03BFF344991
:1053400002F038FF014624483BE0014620F47F6527
:1053500002F030FF414625F00F058246484603F033
:10536000E5F80146504603F02DF8294680462846C8
:1053700003F028F80146204602F01AFF29460446A9
:10538000304602F017FF0146204603F0CFF80146F1
:1053900002F010FF0146114802F00AFF01464046A4
:1053A00002F006FF29460446284602F003FF0146A4
:1053B000184802F0FDFE0146204602F0F9FE0146C3
:1053C000144802F0F5FE002F02DC00F1004400E07A
:1053D00004462046BDE8F087DB0FC93F2EBD3BB336
:1053E000CAF2497108EF1138047F4F3A4611243D43
:1053F000A80A4E3E90B0A63EABAA2A3E2EC69D3DC0
:105400006133303F2D57014039D119409999793F87
:105410002EBD3B33DB0F493FF8B521F00046B6F116
:10542000FF4F03460D4605DC20F000420746B2F16F
:10543000FF4F03DD184602F0BDFE67E0B1F17E5F6D
:1054400003D1BDE8F840FDF753B98C1704F002040E
:1054500044EAD07422B9022C1DD0032C57D11CE091
:1054600006B3B6F1FF4F1AD1B2F1FF4F0BD1022CA8
:1054700005D0032C05D0012C41D0264B47E0264B0C
:1054800045E0264B43E0022C05D0032C05D0012C2F
:1054900037D000233BE0224B39E0224B37E0B2F11A
:1054A000FF4F03D1002F2FDA1F4B30E0921BD21594
:1054B0003C2A0BDC002901DA3C3209DB184603F0F8
:1054C00035F8FDF75BFAFDF713F902E0174800E045
:1054D0000020012C03D0022C04D0BCB108E000F164
:1054E000004314E0124902F065FE01460C4803E057
:1054F0000F4902F05FFE0A4902F05AFE06E00D4B2A
:1055000005E04FF0004302E0084B00E00346184678
:10551000F8BD00BFDB0F493FE4CB1640E4CB16C01B
:10552000DB0F4940DB0F49C0DB0FC9BFDB0FC93FB1
:105530002EBDBB33DB0F49BF9C4A2DE9F04F20F055
:105540000047974287B00C46054603DC20600023E5
:105550004B60E0E0964A974248DC0028954927F0E6
:105560000F07954D20DD02F023FEAF42064609D01D
:10557000924902F01DFE01462060304602F018FEFE
:105580008E490CE08E4902F013FE8E49054602F06A
:105590000FFE01462060284602F00AFE894902F00B
:1055A00007FE01266060FDE002F004FEAF42064601
:1055B00009D0824902F0FEFD01462060304602F02B
:1055C000F7FD7E490CE07E4902F0F4FD7D49054679
:1055D00002F0F0FD01462060284602F0E9FD79491D
:1055E00002F0E8FD4FF0FF366060DBE0764A97425C
:1055F00000F38980FDF7C2F97449804602F0E2FEAB
:105600004FF07C5102F0D6FD03F0A2F8064602F0FE
:1056100085FE6849834602F0D5FE0146404602F009
:10562000C7FD66498046584602F0CCFE1F2E8146D3
:10563000404607DC664B711E27F0FF0253F821300D
:105640009A4248D14946FF1502F0B2FD2060C0F3EE
:10565000C750381A082844DD5949584602F0B2FEAE
:1056600081464046494602F0A3FD824640465146E7
:1056700002F09EFD494602F09BFD52498046584685
:1056800002F0A0FE414602F093FD81465046494695
:1056900002F08EFD2060C0F3C7503F1A192F1FDDA6
:1056A0004C49584602F08EFE07465046394602F0F5
:1056B0007FFD80465046414602F07AFD394602F0B1
:1056C00077FD45490746584602F07CFE394602F010
:1056D0006FFD81464046494602F06AFD206000E0C9
:1056E000D04627684046394602F062FD494602F03E
:1056F0005FFD002D606055DA07F1004700F10040C2
:10570000276060604DE0B7F1FF4F06DB014602F015
:105710004FFD60602060002644E04FEAE758A8F1A2
:1057200086084FEAC853FF1A384603F011F802F012
:10573000F5FD01460390384606AF02F039FD4FF003
:10574000874102F03FFE064603F002F802F0E6FD54
:10575000014604903046032602F02AFD4FF08741AF
:1057600002F030FE059000E0013E57F8040D0021E4
:1057700002F0BCFF0028F7D102230093174B03A8C7
:10578000214642460193334601F01CF8002D06469F
:1057900008DA236803F100432360636803F10043E0
:1057A00063607642304607B0BDE8F08FD80F493FBE
:1057B000E3CB1640800FC93FD00FC93F4344353774
:1057C0000044353708A3852E800F494384F9223FD2
:1057D000C8A3010800A3852E32318D2448A40108F6
:1057E00020F000420346B2F1FF4F70B5044607D3E4
:1057F000014602F0E7FD0146204602F0DBFC09E02D
:10580000002A3AD0002807DA014602F0D1FC01460E
:1058100002F08CFE044630E0C415B2F5000F08D249
:10582000002201E05B0001321902FBD5C2F1010246
:10583000A41823F07F437F3C23F40003E20743F4E2
:1058400000034FF0807148BF5B00002264101920F4
:105850005B00164675189D4202DC6E185B1B5218E1
:105860005B0049080138F5D113B102F00103D218E9
:10587000521002F17C5202EBC454204670BD00006D
:105880002DE9F04F21F0004487B0B4F1795F8246F2
:105890008B46CDE9022304DA02F0EEFB002800F08B
:1058A000B08052465B465046594602F04BF958A329
:1058B000D3E9002306460F4602F044F956A3D3E984
:1058C000002301F08DFF02460B463046394602F0B8
:1058D00039F953A3D3E9002301F080FF02460B46B8
:1058E0003046394602F02EF94FA3D3E9002301F0E8
:1058F00077FF02460B463046394602F023F94CA3A7
:10590000D3E9002301F06AFF02460B4630463946D0
:1059100002F018F948A3D3E9002301F061FF0B4618
:1059200002463946304602F00DF9454B9C4280460E
:10593000894626DC0022434B3046394602F002F904
:1059400042464B46CDE900013046394602F0FAF8AE
:10595000DDE9022304460D465046594602F0F2F8AE
:1059600002460B462046294601F038FF02460B4608
:10597000DDE9000101F032FF02460B46002032490A
:105980003CE0324B9C4205DCA4F500130022144697
:105990001D4601E02E4D002422462B4600202A49B8
:1059A00001F01CFF0022274BCDE9000130463946AB
:1059B00002F0C8F822462B4601F010FF42464B4643
:1059C000CDE904013046394602F0BCF8DDE9022396
:1059D00004460D465046594602F0B4F802460B46BE
:1059E0002046294601F0FAFE02460B46DDE9040195
:1059F00001F0F4FE02460B46DDE9000101F0EEFE87
:105A000001E01149002007B0BDE8F08FAFF300803E
:105A1000D43888BEE9FAA8BDC4B1B4BD9EEE213E1B
:105A2000AD529C804F7E923E9015CB19A001FA3E5C
:105A30007751C1166CC1563F4C5555555555A53F2C
:105A40003233D33F0000E03F0000F03F0000E93F69
:105A50000000D23FAFF300802DE9F04FADF5197D86
:105A60001446182705930AAE0491AC4BA299059AE7
:105A70000990E01E53F821301821013A0092029358
:105A800001F036FE0299A39A20EAE0700890C34321
:105A900007FB0347009C051B04EB0109002402EBF4
:105AA00085080BE0EC4204D458F8240001F0E4FF30
:105AB00001E0002000210134E6E902014C45F1DD5E
:105AC0000DF5B47900244D4617E074E90223013640
:105AD000F5E8020102F036F802460B4650465946F8
:105AE00001F07EFE82468B46009B9E42EDDD4C46D9
:105AF0003D4601344746E5E902AB02998C4201DD9F
:105B00000D4614E0059A0CABDDF824804FF0000A36
:105B100004EB02094FF0000B002603EBC9092B46EA
:105B20004A464546A146B84614461F46DCE74FEABA
:105B3000C50898AC04EB08035CA988442C4653E9DB
:105B40003CAB434683AEA8461D4622E00022744B80
:105B50005046594601F0F6FF013C02F08DFA01F083
:105B60008BFF00226F4BCDE9060101F0EBFF0246EF
:105B70000B465046594601F031FE02F07DFADDE950
:105B8000062346F8040F75E9020101F029FE82465A
:105B90008B46002CDADC3A4650465946454601F021
:105BA0006BFC00224FF07F538046894601F0CAFF0C
:105BB00001F09EFB00225C4B01F0C4FF02460B4645
:105BC0004046494601F00AFE8946804602F054FAF2
:105BD000064601F051FF02460B464046494601F099
:105BE000FDFD002F8046894615DD6B1E98AAC7F182
:105BF000180102EB830353F8502C42FA01FB5E4478
:105C00000BFA01FBCBEB0202C7F1170B43F8502C48
:105C100042FA0BFB10E007D198AC04EB850353F874
:105C2000543C4FEAE35B07E00022404B02F010FADD
:105C300030B94FF0000B52E0BBF1000F02DC4EE038
:105C40004FF0020B0023013684AA1C460EE052F8E6
:105C5000041B1CB949B1C1F1807103E0C1F1FF110E
:105C600001F57F41012442F8041C0133AB42EEDB15
:105C7000002F1BDD012F02D0022F17D10AE06B1E6F
:105C800098A901EB830353F8502C22F07F4222F4B1
:105C9000000209E06B1E98AA02EB830353F8502C14
:105CA00022F07F4222F4400243F8502CBBF1020F55
:105CB00015D142464B4600201D4901F08FFD80461C
:105CC000894664B13A460020194901F0D5FB0246E5
:105CD0000B464046494601F081FD804689464046D4
:105CE00049460022002302F095F900287CD00023C9
:105CF00084AC29461A4604EB850001E0C4582243CF
:105D0000029C0139043BA142F8DA002A6FD184A930
:105D10004FF0010B01EB84030EE000BF60A7010808
:105D20000000703E00007041000020400000E03F95
:105D30000000F03F0BF1010B53F8042D002AF9D0BD
:105D400005995CAA02EBC50A0CAA6B186C1CAB4443
:105D5000A39902EBC302089B00260A92ED18B846ED
:105D600001EB85050B95554639E00B990A9A8B197D
:105D700002EB4607586801F07FFE059ADDF8249093
:105D80000CAB04EB020A002203EBCA0A0023CDE9A4
:105D900006234B465246C146A246A84614461D4617
:105DA000C7E9000100270EE074E902230137F5E896
:105DB000020101F0C7FE02460B46DDE9060101F0D3
:105DC0000FFDCDE90601009B9F42EDDD5446DDE964
:105DD000062345460134C8460436E5E902235C45FE
:105DE000C3DD47465D46A2E6059670B100E0059624
:105DF00084AC183F04EB8503013D01E0013D183FF1
:105E000053F8042D002AF9D039E0404649467A4239
:105E100001F032FB0022954B8046894602F018F9CA
:105E200020B30022924B4046494601F08BFE1837C2
:105E300002F022F901F020FE98AA02EB85048B4BB8
:105E400000220135CDE9000101F07CFE0B4602463F
:105E50004946404601F0C2FC02F00EF998AB44F806
:105E6000500C03EB8504DDE9000104E098A94046ED
:105E700001EB8504494602F0FFF844F8500C3A461D
:105E800000207C492F4601F0F7FA5CAA84AB00267B
:105E900002EBC50803EB8509CDE9000117E059F8CD
:105EA000060008EB460401F0E7FD013F043E024610
:105EB0000B46DDE9000101F045FE00226C4BC4E910
:105EC0000001DDE9000101F03DFECDE90001002FF8
:105ED000E5DA0DF1C80A2E460027A84654461CE014
:105EE000F4E902230135F6E9020101F02BFE024636
:105EF0000B46DDE9000101F073FCCDE900010299D8
:105F00008D4201DCBD42EBDD4E46DDE90023444617
:105F1000013ED0460137E4E90223002E13DBDFF80F
:105F2000589106F1FF3A5CAB002203EBCA0A00234A
:105F3000CDE900234B462246B14654460025C246D1
:105F40001E469046DBE7A29C4546032C00F2E88003
:105F5000DFE804F01108080234AA474602EBC8063D
:105F600034467EE098AB444603EBC8060023A6F512
:105F7000C4761F4626E098A9002201EBC804134608
:105F8000A4F5C47408E01046194674E90223013DE3
:105F900001F026FC02460B46002DF4DABBF1000F9F
:105FA00001D003F10043049C10461946C4E90001E6
:105FB000B6E01846394676E90223013C01F010FCB0
:105FC00003460F46002CF4DA3A46BBF1000F01D02D
:105FD00007F10047049C1846394617461A463B46C7
:105FE000C4E9000198AC74E9640101F0F7FB2646AE
:105FF000012402460B4608E010461946F6E9022342
:10600000013401F0EDFB02460B46AC42F4DDBBF17E
:10601000000F01D003F10043049C10461946C4E967
:1060200002017DE054E90289013FD4E900234046A2
:106030004946CDE9022301F0D3FBCDE900014046FA
:10604000DDE90023494601F0C9FB02460B46DDE9C4
:10605000020101F0C5FBDDE90023C4E9000164E9A8
:106060000223002FDEDC2C4627E000BF0000704139
:106070000000703E0000F03F68A7010856E9028961
:10608000013CD6E9002340464946CDE9022301F010
:10609000A7FBCDE900014046DDE90023494601F0B8
:1060A0009DFB02460B46DDE9020101F099FBDDE9AB
:1060B0000023C6E9000166E90223012CDEDC98AB6F
:1060C000002003EBC5040146A4F5C47404E074E9A0
:1060D0000223013D01F084FB012DF8DCBBF1000F30
:1060E0000DD1049CDDE93423C4E90023DDE9362326
:1060F000C4E9022302460B46C4E9042310E0049CD1
:1061000001F10041349B20612360359B616103F103
:1061100000436360369BA360379B03F10043E36059
:10612000059C04F007000DF5197DBDE8F08F00BF58
:106130002DE9F04F85B006460F46CDE9002321F04A
:106140000043B3F1795F04DA01F096FF002800F014
:106150008C8032463B463046394601F0F3FC3246ED
:106160003B4604460D4601F0EDFC43A3D3E9002372
:1061700082468B462046294601F0E4FC40A3D3E941
:10618000002301F02BFB02460B462046294601F076
:10619000D9FC3DA3D3E9002301F022FB02460B46C4
:1061A0002046294601F0CEFC39A3D3E9002301F0B3
:1061B00015FB02460B462046294601F0C3FC36A3D8
:1061C000D3E9002301F00CFB0E9B80468946BBB946
:1061D00042464B462046294601F0B4FC30A3D3E9A1
:1061E000002301F0FBFA02460B465046594601F0E7
:1061F000A9FC02460B463046394601F0F1FA32E07E
:106200000022294BDDE9000101F09CFC42464B468F
:10621000CDE902015046594601F094FC02460B4676
:10622000DDE9020101F0DAFA02460B462046294672
:1062300001F088FCDDE9002301F0D0FA18A3D3E9CE
:10624000002304460D465046594601F07BFC0246A9
:106250000B462046294601F0C3FA02460B4630465B
:10626000394601F0BBFA06460F463046394605B0BE
:10627000BDE8F08FAFF300807CD5CF5A3AD9E53D29
:10628000EB9C2B8AE6E55A3E7DFEB157E31DC73EE7
:10629000D561C119A0012A3FA6F810111111813F43
:1062A000495555555555C53F0000E03FAFF30080B7
:1062B0002DE9F04F9846154B21F0004A89B007466A
:1062C0009A450E469146DDF848B0029124DC01F073
:1062D000D3FE002846D14AEA070A0BF101025AEA26
:1062E000020208D138463146FCF706F902460B4651
:1062F0000020074907E0BBF1010F00F0BE8105490E
:1063000000203A46334601F047FDB1E1FFFF2F3E42
:106310000000F03F0000F0BF954B9A4522DD029B44
:106320003A46002BB8BF01F1004673A1D1E9000144
:106330003346B8BF08F1004801F050FA4A464346D8
:106340004FF00009C84604460D466DA1D1E9000191
:1063500001F044FA02460B462046294601F040FA75
:1063600007460E463A4633463846314601F0EAFBC8
:1063700002460B46CDE9000101F0E4FB3A46334604
:1063800004460D46DDE9000101F0DCFB5EA3D3E924
:106390000023CDE904012046294601F0D3FB5CA38C
:1063A000D3E9002301F01CFA02460B462046294699
:1063B00001F0C8FB58A3D3E9002301F011FA02460B
:1063C0000B462046294601F0BDFB55A3D3E9002327
:1063D00001F006FA02460B462046294601F0B2FBC0
:1063E00051A3D3E9002301F0FBF902460B462046F6
:1063F000294601F0A7FB4EA3D3E9002301F0F0F9F1
:106400004DA3D3E90023CDE906012046294601F03A
:1064100099FB4BA3D3E9002301F0E2F902460B46B6
:106420002046294601F08EFB47A3D3E9002301F063
:10643000D7F902460B462046294601F083FB44A3C8
:10644000D3E9002301F0CCF902460B462046294649
:1064500001F078FB40A3D3E9002301F0C1F9024623
:106460000B462046294601F06DFB3DA3D3E90023EE
:1064700001F0B6F902460B46DDE9000101F062FBCE
:1064800002460B46DDE9060101F0AAF902460B4679
:10649000DDE9040101F056FB4A46434601F0A0F94C
:1064A00002460B46DDE9000101F04CFB02460B46BB
:1064B0004846414601F094F92BA3D3E90023044652
:1064C0000D46DDE9040101F03DFB02460B46204686
:1064D000294601F085F9CDE900013846DDE90023C0
:1064E000314601F07DF9224B9A4504460D467DDD8B
:1064F00040E000BFAFF30080182D4454FB21E93F7A
:10650000075C143326A6813C735360DBCB75F3BE66
:10651000A69237A0887E143F0165F2F2D844433F2B
:10652000280356C9226D6D3F37D60684F464963F22
:106530007AFE10111111C13FD47ABF74702AFB3E4C
:10654000E9A7F0320FB8123F68108D1AF726303FD6
:106550001583E0FEC8DB573F93846EE9E326823F54
:10656000FE41B31BBAA1AB3F635555555555D53FB9
:106570002794E53F584601F07FFA22462B46824693
:106580008B462046294601F0DDFA52465B4680469E
:1065900089462046294601F023F902460B4640462B
:1065A000494601F0F9FBDDE9002301F017F9024645
:1065B0000B463846314601F011F902460B4601F010
:1065C0000FF902460B465046594601F007F9029B67
:1065D0000446981700F002000D46C0F1010001F0DA
:1065E0004BFA22462B4601F0ADFA41E0BBF1010F18
:1065F00041D002460B4689468B460020214901F0D6
:10660000CBFB4FF0000842464B46C2464446CDE91C
:106610000201104642460D4601F094FA00221A4B40
:1066200001F0DEF83A4633468046894650465946E0
:1066300001F0D4F802460B46DDE9000101F0CEF886
:1066400002460B465046294601F07CFA02460B46AC
:106650004046494601F0C4F802460B46DDE9020116
:1066600001F070FA02460B465046294601F0B8F890
:1066700007460E4601E007460E463846314609B049
:10668000BDE8F08F0000F0BF0000F03FAFF30080E6
:106690002DE9F84320F00046B6F1485F05460F4665
:1066A00003DA02F055F8002875D02946284601F093
:1066B00089FE3B49044601F085FE3A4901F07AFD26
:1066C0000146204601F07EFE374901F071FD01468A
:1066D000204601F077FE354901F06CFD0146204669
:1066E00001F070FE324901F063FD0146204601F0E1
:1066F00069FE304901F05EFD0146204601F062FE70
:106700002D4B9E4280461ADC20464FF07C5101F012
:1067100059FE41460646204601F054FE39460446DD
:10672000284601F04FFE0146204601F041FD01469A
:10673000304601F03DFD01464FF07E5027E01F4BF3
:106740004FF07E509E42D4BF06F17F461C4E31462C
:1067500001F02EFD4FF07C518146204601F032FEC3
:10676000314601F025FD41460646204601F02AFE4D
:1067700039460446284601F025FE0146204601F030
:1067800017FD0146304601F013FD0146484601F071
:106790000FFDBDE8F8834FF07E50BDE8F88300BFE1
:1067A0004ED747ADF6740F317CF29334010DD037DC
:1067B000610BB63AABAA2A3D9999993E0000483F31
:1067C0000000903E2DE9F04FDDB00C46069366992F
:1067D000B84B089053F82170069B013B0393D31EDE
:1067E00048BF131D0025A846DB1023EAE373059379
:1067F000DE4302EBC606039AC2EB0309679B02EB7A
:10680000070B03EB890A0DE018EB090F04D45AF8C3
:10681000050001F083FD00E0002020AB08F1010835
:10682000E8500435D845EFDD069A4FF000090DF524
:10683000907804964FEA820CACF1A00CE34616E087
:1068400059F80510013657F8040B029301F0BAFD10
:106850000146504601F0AEFC029B8246039A043D7D
:106860009642EDDD079F03F1010948F804ABB945F5
:1068700003DD049E3D4607940BE0089A00250BEBD0
:10688000080C4B4607974FF0000A2E461746E14684
:10689000E4E7AB000DF5B87E0EEB03020DF12C0A18
:1068A000A9464FF0000852F8504C48AAD21804925A
:1068B0001DE04FF06E5109F1FF3901F083FD01F049
:1068C00047FF01F02BFD4FF08741834601F07AFD31
:1068D0000146204601F06CFC01F03AFF049B53F89E
:1068E00008104AF8040F584601F064FC0446B9F158
:1068F000000FA8F104082046DBDC314600F09AFEC8
:106900004FF07851044601F05DFD00F029FE4FF094
:10691000824101F057FD0146204601F049FC8046C6
:1069200001F016FF044601F0F9FC0146404601F073
:106930003FFC002E814614DD6B1E0CA951F823206C
:10694000C6F1080142FA01F8444408FA01F80CA91A
:10695000C8EB0202C6F1070841F8232042FA08F802
:106960000FE006D16B1E0CAA52F823304FEA232801
:1069700007E04FF07C5101F0D7FE30B94FF000082E
:1069800048E0B8F1000F02DC44E04FF002080023B9
:1069900001340CAA9A460FE052F8041BBAF1000F1A
:1069A00003D141B1C1F5807101E0C1F1FF014FF0A8
:1069B000010A42F8041C0133AB42EDDB002E13DD6B
:1069C000012E02D0022E0FD106E06B1E0CA951F849
:1069D000232002F07F0205E06B1E0CA951F8232052
:1069E00002F03F0241F82320B8F1020F12D14946CC
:1069F0004FF07E5001F0DCFB8146BAF1000F09D068
:106A000031464FF07E5000F015FE0146484601F039
:106A1000CFFB81464846002101F068FE00286FD078
:106A200000230DF1300E29461A460EEB850003E0D7
:106A300050F803E042EA0E020139043BB942F7DAAA
:106A4000002A61D10CA94FF0010A01EB870301E094
:106A50000AF1010A53F8042D002AF9D0DDF818E0F4
:106A600020A96B1C002405EB0E029B460B9692009E
:106A70000492511848AA02EB850209910A9238E063
:106A8000049B0DF1800E059A4FF000080EEB0306F3
:106A90004FF00009AB18679A02EB83031B19586883
:106AA00001F03CFC099AAC4613191D46305146468C
:106AB00014E000BFB0A70108089B724208F101086A
:106AC000A95898590436CDF808C001F07BFC01465E
:106AD000484601F06FFBDDF808C08146039A9045F7
:106AE000EADD0A9A65460BF1010B13190434C3F869
:106AF000049005EB0A029345C2DD0B9E1546C8E6DD
:106B00000394079C80B101E00394079C0DF1300EC3
:106B1000083E0EEB8503013D01E0013D083E53F8C0
:106B2000042D002AF9D02FE04846714200F082FD82
:106B30004FF08741814601F0F7FDF8B14FF06E51FB
:106B4000484601F03FFC083601F002FE01F0E6FB8A
:106B50004FF08741824601F035FC0146484601F07E
:106B600027FB01F0F5FD0CA941F82500504601F086
:106B7000EFFD01350CAA42F8250005E0484601F07A
:106B8000E7FD0CAB43F8250031464FF07E5000F096
:106B900051FDAB000CAA48A901EB030BD318A94681
:106BA0002A4600261D46824613E0A85909F1FF39FE
:106BB000019201F0B3FB0146504601F003FC4FF097
:106BC0006E514BF80600504601F0FCFB019A043E62
:106BD0008246B9F1000FE8DA1546002648A9069565
:106BE00001EB8501AA460591B346424629E0DFF84C
:106BF000D8E108F101085AF80510019255F80E0085
:106C00000435029301F0DEFB0146484601F0D2FA5A
:106C1000019A029B814608E0059B00254FF0000980
:106C2000A846C6EB030C5346E246B84501DCD845FE
:106C3000DDDD34A903F1FF3A0BF1010B46F80190B9
:106C40000436BAF1000FE7DA9046669A069D032AE9
:106C500000F2B380DFE802F0081D1D5EB959013D66
:106C600001F0A8FA043E04E034A90026002001EB5C
:106C70008507002DF2DAB8F1000F01D000F10040D5
:106C800020609AE059F80610013F01F093FA043EA3
:106C900005E034AA2F460026002002EB8509002FCC
:106CA000F0DA0146B8F1000F01D000F100405CAE0F
:106CB0002060012756F8A00D01F07AFA04E056F89A
:106CC000041F013701F076FAAF42F8DDB8F1000F8A
:106CD00001D000F1004060606FE0A9F1040956F8AE
:106CE00007B00AF1FF3A56F80930584619460293A0
:106CF00001F060FA024658461146019201F058FA36
:106D0000029B0146184601F055FA019A46F809001F
:106D1000F25106E034ABAA464FF00409002703EB1A
:106D20008506043FBAF1000FD7DC34A9AA464FF01C
:106D30000409002701EB85061BE0A9F1040956F8B8
:106D400007B00AF1FF3A56F809305846194602933F
:106D500001F030FA024658461146019201F028FA35
:106D6000029B0146184601F025FA019A46F80900EF
:106D7000F251043FBAF1010FDFDC34AA00260020F3
:106D800002EB850704E0B959013D01F013FA043E16
:106D9000012DF8DCB8F1000F04D1349B2360359B42
:106DA000636009E0349B00F1004003F1004323607D
:106DB000359B03F100436360A060039B03F0070071
:106DC0005DB0BDE8F08F00BFBCA701082DE9F84316
:106DD00020F00043B3F1485F04460D46914603DAC4
:106DE00001F0B6FC00285BD02146204601F0EAFA0B
:106DF0002146064601F0E6FA2B490746304601F0E7
:106E0000E1FA2A4901F0D4F90146304601F0DAFAF4
:106E1000274901F0CFF90146304601F0D3FA254960
:106E200001F0C6F90146304601F0CCFA224901F0E2
:106E3000C1F98046B9F1000F0FD14146304601F04B
:106E4000C1FA1E4901F0B4F90146384601F0BAFA18
:106E50000146204601F0AEF921E028464FF07C5172
:106E600001F0B0FA41468146384601F0ABFA0146DE
:106E7000484601F09DF90146304601F0A3FA294643
:106E800001F096F90D490546384601F09BFA014696
:106E9000284601F08FF90146204601F089F90446A1
:106EA0002046BDE8F88300BFD3C92E2F342FD73238
:106EB0001BEF3836010D50398988083CABAA2A3EB1
:106EC0002DE9F04F21F00042614D85B006460F4696
:106ED000AA4201F0004432D95E4DAA4221D95E4D4A
:106EE000AA420ED921F07F43804623F470038946DD
:106EF000034302D002460B4686E1002C00F0C88115
:106F0000C4E145A3D3E9002301F0ACF848B144A1A2
:106F1000D1E9000102460B4600F014FE06460F467A
:106F2000B6E15CB340A3D3E900233046394600F014
:106F300057FC0022002301F077F8F8B1A6E1474B97
:106F40009A425BD9464B9A4218D839A3D3E9002319
:106F50004CB900F043FC01240FF2DC09D9E90089A7
:106F600082468B4635E000F03BFC4FF0FF340FF2D9
:106F7000D009D9E9008982468B462AE032A3D3E9B9
:106F800000233046394600F0DDFD00220CB1354BC0
:106F900000E0354B00F024FC01F06EF8044600F0F0
:106FA0006BFD23A3D3E900238046894600F0CAFD88
:106FB00002460B463046394600F010FC1EA3D3E9CA
:106FC000002382468B464046494600F0BBFD804682
:106FD000894642464B465046594600F0FFFB06465E
:106FE0000F4632463B465046594600F0F7FB4246B4
:106FF0004B4600F0F3FBCDE902013AE01B4B9A420D
:1070000036D807A3D3E9002300F0EAFB02460B467B
:10701000ABE000BFAFF30080EF39FAFE422E8640AE
:107020009C7500883CE4377E59F3F8C21F6EA501B9
:107030000000E0FE422EE63F763C7935EF39EA3D2E
:10704000763C7935EF39EABDFE822B654715F73F6F
:1070500079684340412E8640FFFFEF7F422ED63FA6
:10706000B1A2F03F0000E0BF0000E03FFFFF8F3C17
:1070700000240022944B3046394600F063FD8046E0
:10708000894642464B463046394600F05BFD84A3B4
:10709000D3E9002382468B4600F054FD82A3D3E956
:1070A000002300F09DFB02460B465046594600F077
:1070B00049FD7FA3D3E9002300F090FB02460B4675
:1070C0005046594600F03EFD7BA3D3E9002300F073
:1070D00087FB02460B465046594600F033FD78A325
:1070E000D3E9002300F07AFB02460B46504659468E
:1070F00000F028FD0022754B00F072FB42464B4623
:10710000CDE9000100F01EFD02460B46002070494B
:1071100000F064FB804689464246DDE900014B46AB
:1071200000F05CFB42464B46CDE900013046394653
:1071300000F008FD02460B460020664900F04EFBB9
:1071400002460B46DDE9000100F026FE02460B4632
:107150005046594600F0F6FC02460B4664B93046EC
:10716000394600F0EFFC52465B4600F037FB024622
:107170000B46304639465BE0DDE9022300F02EFB8A
:1071800002460B463046394600F0DCFCDDE90223BE
:1071900000F024FB5B46524600F020FB631C804657
:1071A00089460CD142464B463046394600F016FB24
:1071B0000022454B00F0C6FC0022434B38E0012C76
:1071C00025D1304639460022434B00F02DFF78B1DF
:1071D00000223D4B3046394600F002FB02460B468A
:1071E0004046494600F0FAFA00224FF0404393E649
:1071F00042464B463046394600F0F0FA02460B460E
:1072000000F0EEFA314B002200F0EAFA86E6631C49
:10721000392B10D932463B4600F0E0FA02460B46C5
:1072200000202A4900F0DAFA284B002201EB045131
:1072300000F0D4FA72E6132C13DC4FF4001332463C
:107240004FF000082341C3F17F5303F540193B463B
:1072500000F0C4FA02460B464046494600F0BEFA2A
:1072600010E0C4F57F75002203352B0500F0B8FA55
:1072700002460B463046394600F0B0FA0022134B66
:1072800000F0AEFA064601EB045701E0134F00266A
:107290003046394605B0BDE8F08F00BFAFF300803F
:1072A0002DC3096EB7FD8ABE3952E686CACFD03EDD
:1072B000B7DBAA9E19CE143F8555FE19A0015A3F8F
:1072C000F41011111111A13F0000E03F0000F03F48
:1072D00000000840000018400000D0BF0000F0BFD0
:1072E00021F0004000F1004000F58010C00F704711
:1072F0002DE9F84FC1F30A57A7F2FF368246132E45
:107300008B460C468146054636DC002E17DA38A33C
:10731000D3E9002300F064FA0022002300F0A2FE6B
:1073200000285FD0002C5BDA2BF0004343EA0A050B
:10733000314B002D18BF002518BF1C4652E02F4FBF
:10734000374107EA010303434ED029A3D3E90023C1
:1073500000F046FA0022002300F084FE002841D00D
:10736000002C05DA4FF4801353FA06F60BEB0604F3
:1073700024EA0704002535E0332E09DDB6F5806FD9
:1073800032D102460B4600F02BFA82468B462BE0A8
:107390004FF0FF38A7F2134328FA03F818EA000F5A
:1073A00022D013A3D3E9002300F01AFA002200230D
:1073B00000F058FEB0B1002C0FDA142E01D10134C8
:1073C0000BE00123C7F58667033713FA07F70AEBCB
:1073D0000705554538BF0BEB030425EA080501E016
:1073E00000252C46A346AA4650465946BDE8F88FCC
:1073F0009C7500883CE4377E0000F0BFFFFF0F0063
:107400000B4611B1B1F1004F00D1E0B1124AA3F522
:107410008011914219D903F1FF4101F5E001914238
:1074200013D90E4A934212D903F1004191420ED969
:107430000B4A934202D013F5801F0AD1D0F101000C
:1074400038BF002070470220704704207047032097
:1074500070470020704700BFFFFFDF7FFFFF0F0076
:107460000000F07F0020704700200149704700BFF6
:107470000000F87F000000002DE9F843C1F30A572F
:1074800004460D4616460B467FB921F000430343E0
:1074900052D000222E4B00F055FB2E4B9E4204464C
:1074A0000D468046894609DA33E040F2FF72974282
:1074B00008D102460B4600F093F93BE0C1F30A57AE
:1074C0000B46363FBA1940F2FE718A420FDC002AA1
:1074D00006DD23F0FF4323F4E00343EA02552BE0EB
:1074E00012F1350F19DA4CF250339E420ADD224672
:1074F0002B4613A1D1E9000100F0EAF810A3D3E96B
:10750000002315E010A1D1E9000122462B4600F02E
:10751000DFF80DA3D3E900230AE0363223F0FF435E
:1075200023F4E003204643EA02550B4B2946002290
:1075300000F008FB04460D4620462946BDE8F883C6
:107540009C7500883CE4377E59F3F8C21F6EA50194
:1075500000005043B03CFFFF0000903CAFF30080C0
:1075600070B520F0004601460446F50D7F3D162D0E
:1075700024DC002D0DDA174900F01CFE002101F07B
:10758000DDF818B3002C20DA134B002E18BF1C4670
:107590001CE0124E2E41064219D00E4900F00AFEA0
:1075A000002101F0CBF888B1002C04DA4FF400037D
:1075B00053FA05F5641924EA060407E0B6F1FF4F13
:1075C00005D300F0F7FD014601E0002421460846FE
:1075D00070BD00BFCAF24971000080BFFFFF7F008D
:1075E000F0B1B0F1004F1BD0A0F500026FF00143E5
:1075F0009A4217D900F1FF429A4213D90C4A431E0E
:10760000934211D900F10043013B93420CD9B0F1F0
:10761000FF4F0BD010F5000F14BF00200120704762
:1076200002207047042070470320704701207047F4
:10763000FEFF7F0030F00042034610B50C460146C5
:107640003ED0B2F1FF4F03D3014600F0B3FD36E068
:10765000B2F5000F0CD24FF0984100F0B3FE194A7A
:107660009442034620DBC0F3C7520146193A00E0BA
:10767000D20D1219FE2A0DDC002A04DD21F0FF4193
:1076800041EAC2531CE012F1160F0FDA4CF25032ED
:10769000944205DD19460C4800F024F80A490CE034
:1076A0000A48194600F01EF8084906E0193221F090
:1076B000FF4141EAC2504FF04C5100F083FE0346B7
:1076C000184610BDB03CFFFFCAF249716042A20DDE
:1076D00003F0004321F0004230B50D46044643EA72
:1076E000020130BD01F0004120F000400843704726
:1076F000002956D080EA010C48BF49424A1E38D0C2
:10770000030048BF43428B4238D911423ED0B1FA00
:1077100081F2B3FA83F0A2EB00004FF0010201FA0C
:1077200000F102FA00F24FF000008B4224BF5B1A16
:107730001043B3EB510F24BFA3EB510340EA5200B7
:10774000B3EB910F24BFA3EB910340EA9200B3EB9C
:10775000D10F24BFA3EBD10340EAD200002B1CBF02
:107760005FEA12120909E0D1BCF1000F48BF4042A4
:1077700070479CEA000F48BF4042704738BF002066
:1077800004BF4FEAEC7040F001007047B1FA81F29B
:10779000C2F11F02BCF1000F23FA02F048BF4042C1
:1077A00070470028C8BF6FF00040B8BF4FF00040DE
:1077B00000F00EB80029F4D02DE90340FFF79AFF3E
:1077C000BDE8064002FB00F3A1EB0301704700BFD8
:1077D000704700BF81F0004102E000BF83F000432A
:1077E00030B54FEA41044FEA430594EA050F08BF5C
:1077F00090EA020F1FBF54EA000C55EA020C7FEA20
:10780000645C7FEA655C00F0E2804FEA5454D4EB9C
:107810005555B8BF6D420CDD2C4480EA020281EA66
:10782000030382EA000083EA010180EA020281EA9E
:107830000303362D88BF30BD11F0004F4FEA0131F0
:107840004FF4801C4CEA113102D0404261EB4101FF
:1078500013F0004F4FEA03334CEA133302D0524285
:1078600063EB430394EA050F00F0A780A4F1010441
:10787000D5F1200E0DDB02FA0EFC22FA05F280187B
:1078800041F1000103FA0EF2801843FA05F3594161
:107890000EE0A5F120050EF1200E012A03FA0EFCE0
:1078A00028BF4CF0020C43FA05F3C01851EBE3710A
:1078B00001F0004507D54FF0000EDCF1000C7EEB27
:1078C00000006EEB0101B1F5801F1BD3B1F5001F65
:1078D0000CD349085FEA30004FEA3C0C04F1010484
:1078E0004FEA445212F5800F80F09A80BCF1004FAD
:1078F00008BF5FEA500C50F1000041EB045141EA2F
:10790000050130BD5FEA4C0C404141EB010111F42F
:10791000801FA4F10104E9D191F0000F04BF0146DA
:107920000020B1FA81F308BF2033A3F10B03B3F1B8
:1079300020020CDA0C3208DD02F1140CC2F10C0248
:1079400001FA0CF021FA02F10CE002F11402D8BFA6
:10795000C2F1200C01FA02F120FA0CFCDCBF41EA72
:107960000C019040E41AA2BF01EB0451294330BD41
:107970006FEA04041F3C1CDA0C340EDC04F114041E
:10798000C4F1200220FA04F001FA02F340EA0300F5
:1079900021FA04F345EA030130BDC4F10C04C4F13B
:1079A000200220FA02F001FA04F340EA030029461B
:1079B00030BD21FA04F0294630BD94F0000F83F465
:1079C000801306BF81F480110134013D4EE77FEA48
:1079D000645C18BF7FEA655C29D094EA050F08BF94
:1079E00090EA020F05D054EA000C04BF1946104675
:1079F00030BD91EA030F1EBF0021002030BD5FEAB9
:107A0000545C05D14000494128BF41F0004130BDE0
:107A100014F580043CBF01F5801130BD01F0004534
:107A200045F0FE4141F470014FF0000030BD7FEAA7
:107A3000645C1ABF194610467FEA655C1CBF0B46A2
:107A4000024650EA013406BF52EA033591EA030FB9
:107A500041F4002130BD00BF90F0000F04BF0021B1
:107A6000704730B54FF4806404F132044FF00005E4
:107A70004FF0000150E700BF90F0000F04BF00215D
:107A8000704730B54FF4806404F1320410F00045C3
:107A900048BF40424FF000013EE700BF42004FEABE
:107AA000E2014FEA31014FEA02701FBF12F07F433B
:107AB00093F07F4F81F06051704792F0000F14BF38
:107AC00093F07F4F704730B54FF4607401F000457C
:107AD00021F0004120E700BF50EA010208BF7047D3
